:020000040800F2
:100000000050002081500008190700081B07000855
:100010001D0700081F070008210700080000000056
:10002000000000000000000000000000230700089E
:10003000250700080000000027070008290700081E
:10004000C9500008C9500008C9500008C95000082C
:10005000C9500008C9500008C9500008C95000081C
:10006000C9500008C9500008C9500008C95000080C
:10007000C9500008C9500008C9500008C9500008FC
:10008000C9500008C9500008C9500008C9500008EC
:1000900031070008C9500008C9500008C9500008BD
:1000A000C9500008C9500008C9500008C9500008CC
:1000B00041070008C9500008C9500008C95000088D
:1000C000C9500008C9500008C9500008C9500008AC
:1000D000C950000851070008C9500008C95000085D
:1000E000C9500008C9500008C950000800000000AD
:1000F0000000000000000000000000000000000000
:0C01000000000000000000005FF808F1A3
:10010C0010B5054C237833B9044B13B10448AFF345
:10011C0000800123237010BD0802002000000000A5
:10012C00F45F000808B5034B1BB103490348AFF358
:10013C00008008BD000000000C020020F45F0008E5
:10014C0010F8012B11F8013B012A28BF9A42F7D075
:10015C00D01A70472DE9F04389B004AD0024049403
:10016C000594069407942B4B9A6942F010029A61FD
:10017C009A6902F010020092009A9A6942F02002E9
:10018C009A619A6902F020020192019A9A6942F0EE
:10019C0004029A619A6902F004020292029A9A6924
:1001AC0042F008029A619B6903F008030393039BD6
:1001BC00DFF8649022460321484603F06AFA174F91
:1001CC0022464FF48071384603F063FA4FF4005323
:1001DC0004930594012606962946114803F048F924
:1001EC0003230493059606944FF00208CDF81C8067
:1001FC002946484603F03CF94FF480730493059666
:10020C000694CDF81C802946384603F031F909B024
:10021C00BDE8F08300100240000C014000080140D2
:10022C000010014010B514464FF0FF3392B2024853
:10023C0003F03CFE204610BDA004002008B5026867
:10024C00144B9A4200D008BD134B1B780A2B0BD0D1
:10025C000D2B09D0114A1278122A14D8501C0F49B0
:10026C0008700F498B540EE00C4B1B780C48002285
:10027C00C2540C49FFF764FF10B90B4B01221A70E2
:10028C00064B00221A7001220349084804F053F867
:10029C00D9E700BF003801409C04002085040020F1
:1002AC00880400200C60000884040020A0040020B6
:1002BC0008B50368B3F1804F00D008BD274B1B78FD
:1002CC0043B9274B1B781BBB264B1B7833BB264BE8
:1002DC001B784BBB214B1B78214A12789A422AD9A6
:1002EC001E4B1B781F4A12789A422AD91B4B1B783B
:1002FC001D4A12789A422AD9184A13780133DBB274
:10030C0013701378632BD8D9134600221A70D4E7D4
:10031C0001221146154803F0BCF9D5E70122022150
:10032C00124803F0B6F9D2E701224FF4807110485D
:10033C0003F0AFF9CEE7002201210C4803F0A9F934
:10034C00CEE700220221094803F0A3F9CEE70022F0
:10035C004FF48071064803F09CF9CDE7830400202C
:10036C00820400208104002030000020000C014099
:10037C000008014010B4064C2368064A22F82300FA
:10038C0002EB830291700133236010BC704700BFF5
:10039C002402002028020020F8B5074600261B4B3B
:1003AC001E6005E000214FF41670FFF7E3FF0136E5
:1003BC00B95D49B32029F5D0002300E00133052BAA
:1003CC0009DC134A12F833208A42F7D1104A02EBA7
:1003DC00C3035D6800E00F4D002408E00121962066
:1003EC00FFF7C8FF00219620FFF7C4FF01342B5DF7
:1003FC00002BDCD02E2BF1D02D2BF3D102214FF47E
:10040C00E170FFF7B7FFEDE7F8BD00BF2402002055
:10041C0000000020AC60000810B500240DE01B4B60
:10042C0064221A7000231A4A13701A4A13701A4B5A
:10043C0033F8240002F058FC0134184B1B68A3421B
:10044C001ADD154B03EB84039B78012BE7D0022BB1
:10045C0009D0002BEBD100230C4A13700C4A1370FB
:10046C000C4A1370E3E70023084A1370084A64210E
:10047C001170084A1370DAE72123044A1370044AF6
:10048C001370044B22221A7010BD00BF820400208E
:10049C0081040020300000202802002024020020CB
:1004AC0072B6FEE708B50A480A4B03604FF41653C0
:1004BC00436000238360C36003610C22426183614B
:1004CC00C36103F0C3FC00B908BDFFF7E9FF00BF2F
:1004DC00A00400200038014000B587B0002302932F
:1004EC000393049305930093019313484FF08042B8
:1004FC0002604722426083606322C26003618361B1
:10050C0000F008FB88B94FF48053029302A90A4803
:10051C0000F038FB58B90023009301936946064854
:10052C0000F0B0FB28B907B000BDFFF7B9FFFFF72B
:10053C00B7FFFFF7B5FF00BFE804002010B594B07B
:10054C000AAC28220021204604F0C4FF00230593A6
:10055C0006930793089309930193029303930493CF
:10056C0001220A924FF480330B930E9202221192C5
:10057C0012934FF4E0131393204602F0DFFBB8B94B
:10058C000F23059302210691002307934FF48062F9
:10059C000892099305A802F003FE58B910230193A1
:1005AC000023049301A802F0D7FE28B914B010BDA3
:1005BC00FFF776FFFFF774FFFFF772FF08B502F045
:1005CC006FFBFFF7BBFFFFF7C5FDFFF76BFF03F0FA
:1005DC004DF9FFF781FF3F4800F06EF901221146FB
:1005EC003D4804F031FE3D4804F02EFE3C48FFF738
:1005FC00D3FE01223B493C4803F09DFE05E04FF43D
:10060C0000513A4803F03EF878B1394B1B78012B76
:10061C00F5D1384804F080FE3148FFF7BDFEFFF7F6
:10062C00FBFE334B00221A70E9E7192002F05CFB49
:10063C004FF400512D4803F025F80028E5D14FF474
:10064C0000512A4803F01EF80028F8D02A4A1378E3
:10065C000133DBB21370042B02D9134600221A703B
:10066C00254B1B78042B0CD8DFE803F003151F284F
:10067C0030000023214A1370214A1370214B64224D
:10068C001A701E4B19781E4B1A781E4B1B781E487D
:10069C0004F0DAFDB9E7194B50221A70184B3222CC
:1006AC001A70184B00221A70EBE73223134A13709E
:1006BC00134A00211170134A1370E2E700230F4A0A
:1006CC0013700F4A13700F4A1370DAE7FFF7A4FE8A
:1006DC00D7E700BFE8040020146000083860000869
:1006EC006C6000089C040020A00400200010014055
:1006FC00840400207860000880040020820400201C
:10070C00810400203000002094600008FEE7FEE722
:10071C00FEE7FEE7FEE770477047704708B502F04A
:10072C00D1FA08BD08B5024801F0D8F808BD00BFE1
:10073C001814002008B5024800F0F4F808BD00BFFA
:10074C00E804002008B5024803F098FC08BD00BF7F
:10075C00A004002082B00E4B9A6942F001029A610B
:10076C009A6902F001020092009ADA6942F0805212
:10077C00DA61DB6903F080530193019B054A5368EE
:10078C0023F0E06343F08063536002B0704700BF16
:10079C0000100240000001400368B3F1804F00D00C
:1007AC00704700B583B003F50433DA6942F00102F7
:1007BC00DA61DB6903F001030193019B002211460E
:1007CC001C2003F01FF81C2003F02CF803B000BD14
:1007DC0070B586B0002302930393049305930268CB
:1007EC001C4B9A4201D006B070BD03F558439A6970
:1007FC0042F480429A619A6902F480420092009A13
:10080C009A6942F004029A619B6903F00403019314
:10081C00019B4FF40073029302230393032305936C
:10082C0002AE0D4D3146284602F022FE4FF4806395
:10083C0002930024039404943146284602F018FED7
:10084C0022462146252002F0DDFF252002F0EAFF9A
:10085C00C9E700BF003801400008014010B4036A2A
:10086C00046A24F001040462846924F0F00C4CEA5C
:10087C00021223F00A030B438261036210BC70471F
:10088C0010B4036A046A24F010040462846924F42A
:10089C00704C4CEA023223F0A00343EA011382614C
:1008AC00036210BC7047836823F070030B4343F062
:1008BC00070383607047000090F83D30012B27D16F
:1008CC00022380F83D300268D36843F00103D36003
:1008DC000368114A934210D0B3F1804F0DD0A2F5AA
:1008EC009432934209D002F58062934205D01A6883
:1008FC0042F001021A60002070479A6802F0070269
:10090C00062A07D01A6842F001021A6000207047CC
:10091C000120704700207047002C01407047704741
:10092C007047704710B5044603681A6912F0020F3D
:10093C0011D0DA6812F0020F0DD06FF002021A61BA
:10094C000123037703689B6913F0030F70D0FFF743
:10095C00E6FF0023237723681A6912F0040F12D0E4
:10096C00DA6812F0040F0ED06FF004021A61022341
:10097C00237723689B6913F4407F5FD02046FFF7F1
:10098C00CEFF0023237723681A6912F0080F12D0C8
:10099C00DA6812F0080F0ED06FF008021A61042307
:1009AC0023772368DB6913F0030F4ED02046FFF743
:1009BC00B6FF0023237723681A6912F0100F12D0A8
:1009CC00DA6812F0100F0ED06FF010021A610823C3
:1009DC0023772368DB6913F4407F3DD02046FFF773
:1009EC009EFF0023237723681A6912F0010F03D0AE
:1009FC00DA6812F0010F36D123681A6912F0800FF1
:100A0C0003D0DA6812F0800F34D123681A6912F01F
:100A1C00400F03D0DA6812F0400F32D123681A6904
:100A2C0012F0200F03D0DA6812F0200F30D110BD75
:100A3C00FFF774FF2046FFF773FF8AE72046FFF7A6
:100A4C006DFF2046FFF76CFF9BE72046FFF766FF24
:100A5C002046FFF765FFACE72046FFF75FFF204617
:100A6C00FFF75EFFBDE76FF001021A612046FFF74A
:100A7C001FFCC1E76FF080021A61204600F039F9C3
:100A8C00C3E76FF040021A612046FFF74AFFC5E743
:100A9C006FF020021A61204600F02AF9C7E7000027
:100AAC0003681B4A90420AD0B0F1804F07D0A2F5E0
:100ABC009432904203D002F58062904203D123F02D
:100ACC0070034A681343124A90420AD0B0F1804F27
:100ADC0007D0A2F59432904203D002F58062904286
:100AEC0003D123F44073CA68134323F080034A698B
:100AFC00134303608B68C3620B688362044B984298
:100B0C0002D00123436170470B690363F9E700BF0F
:100B1C00002C014040B310B5044690F83D30F3B1C1
:100B2C00022384F83D30214651F8040BFFF7B8FF3F
:100B3C00012384F8463084F83E3084F83F3084F842
:100B4C00403084F8413084F8423084F8433084F8E3
:100B5C00443084F8453084F83D30002010BD80F8D6
:100B6C003C30FFF719FEDBE70120704710B48468B6
:100B7C0024F47F4C42EA03220A4342EA0C028260CC
:100B8C0010BC704790F83C30012B78D010B504465F
:100B9C00012380F83C30022380F83D3002689368D2
:100BAC0023F47F4323F0770393600B68602B4CD0C6
:100BBC0023D8402B54D011D8202B03D00AD80BB1FA
:100BCC00102B05D119462068FFF76DFE002028E098
:100BDC00012026E0302BF5D0012022E0502B0AD149
:100BEC00CA6849680068FFF739FE50212068FFF792
:100BFC005AFE002015E0012013E0B3F5805F3AD0D7
:100C0C00B3F5005F14D0702B37D1CB684A68896874
:100C1C000068FFF7ABFF2268936843F0770393609B
:100C2C000020012384F83D30002384F83C3010BDB3
:100C3C00CB684A6889680068FFF798FF2268936858
:100C4C0043F4804393600020EBE7CA68496800686E
:100C5C00FFF716FE60212068FFF725FE0020E0E775
:100C6C00CA6849680068FFF7F9FD40212068FFF762
:100C7C001AFE0020D5E70020D3E70120D1E702209F
:100C8C007047000090F83C20012A2CD010B4034689
:100C9C00012280F83C20022280F83D200268506836
:100CAC00946820F0700C086840EA0C0050601A68D8
:100CBC000E4882420AD0B2F1804F07D0A0F5943092
:100CCC00824203D000F58060824204D124F080047B
:100CDC00496821439160012283F83D20002083F86C
:100CEC003C0010BC70470220704700BF002C014034
:100CFC007047704738B512F4804F44D00468B4F88C
:100D0C0050309BB291F800C003EBCC03023304EBE0
:100D1C004304B4F80044C4F309048B69A34228D3F8
:100D2C001B1B8B618B697BB9056835F82C309BB22A
:100D3C0023F4804323F0700383F4005343F4004303
:100D4C0043F0800325F82C3012F0400F0ED00268CF
:100D5C000D7832F825309BB223F4E04323F0700376
:100D6C0043F4004343F0C00322F8253024B9204655
:100D7C0038BD00238B61D5E723460A894969006891
:100D8C0001F050FFF3E70468B4F850309BB291F8CF
:100D9C0000C003EBCC03063304EB4304B4F800446B
:100DAC00C4F309048B69A3422FD31B1B8B618B6982
:100DBC007BB9056835F82C309BB223F4804323F0C3
:100DCC00700383F4005343F4004343F0800325F88D
:100DDC002C3012F0400F0FD1026891F800C032F89D
:100DEC002C309BB223F4E04323F0700343F4004314
:100DFC0043F0C00322F82C30002CB8D023464A898B
:100E0C004969006801F00EFFB1E700238B61CEE762
:100E1C0070B586B0002800F08180044690F8A932A5
:100E2C00EBB1032384F8A932206800F08AFF254631
:100E3C0055F8106BEC460FCDACE80F002B68CCF8D6
:100E4C000030231D0ECB304600F06BFF054658B129
:100E5C00022384F8A9320125284606B070BD80F81B
:100E6C00A83202F0F5FDDCE70021206800F073FFEA
:100E7C002B4616E05A1C02EB820104EBC101012047
:100E8C00487002EB820104F8313004EBC100002100
:100E9C00C17003EB830004EBC0008163C163016488
:100EAC00D3B261688B42E5D316E005EB850304EB06
:100EBC00C303002283F8692183F8685183F86B21FE
:100ECC00C3F87821C3F87C2105EB850304EBC3033D
:100EDC00C3F880210135EDB2A942E6D8254655F874
:100EEC00106BEC460FCDACE80F002B68CCF8003043
:100EFC00231D0ECB304600F030FF054620B10223F7
:100F0C0084F8A9320125A7E7002384F824300123B3
:100F1C0084F8A932206801F07FFA9DE701259BE750
:100F2C0038B590F8A832012B11D00446012580F871
:100F3C00A852006800F0FCFE2946204602F09BFEF9
:100F4C00206801F067FA002084F8A80238BD02205E
:100F5C00FCE770B505460C46164612F0400F00F043
:100F6C000E810268B2F850309BB2097803EBC103D2
:100F7C00023302EB4302B2F80024C2F30902A36964
:100F8C0093424ED99B1AA361A369002B66D1637857
:100F9C00002B49D12B68B3F8502092B2134403EBC9
:100FAC000113B3F80424C2F30902A3F80424B3F820
:100FBC0004246FEA42426FEA524292B2A3F804242C
:100FCC002B686278002A3CD1B3F8502092B21344BB
:100FDC00227803EB0213B3F80C24C2F30902A3F832
:100FEC000C24B3F80C246FEA42426FEA524292B2DC
:100FFC00A3F80C242178284602F05CFD16F4804FEF
:10100C0041D02A68217832F821309BB223F4E04396
:10101C0023F0700343F4404343F0800322F8213063
:10102C0031E00023A361AFE7012BC9D12B68B3F8E2
:10103C00502092B2134403EB01130022A3F80424B2
:10104C00BEE7012AD6D1B3F8502092B213442278CD
:10105C0003EB02130022A3F80C24CBE716F4804F09
:10106C000DD0286830F821309BB223F4E04323F0F4
:10107C00700343F4404343F0800320F8213094F88C
:10108C002430012B12D02A68217832F821309BB2FF
:10109C0023F4E04323F0400383F0300343F4004394
:1010AC0043F0800322F82130002070BD63691344A3
:1010BC006361E3691344E361216A2369994224D390
:1010CC00C91A21626278002A44D12A68B2F85010F9
:1010DC0089B20A44217802EB0112B2F80414C1F36C
:1010EC000901A2F804143E2B1BD9580913F01F0F49
:1010FC0000D10138B2F8041489B2800280B20143E5
:10110C0041F40041A2F8041426E021B9002384F82C
:10111C0024301346D6E7002384F8243023620B4690
:10112C00D0E74BB9B2F804146FEA41416FEA514170
:10113C0089B2A2F804140FE0590813F0010F00D083
:10114C000131B2F8040480B2890289B20143A2F8D9
:10115C00041401E0012A06D09BB222896169286837
:10116C0001F062F98FE72A68B2F8501089B20A448C
:10117C00217802EB011299B2A2F80414ECE7026890
:10118C00B2F850309BB2097803EBC103063302EB83
:10119C004302B2F80024C2F30902A36993424FD36D
:1011AC009B1AA361A369002B67D16378002B4AD1EA
:1011BC002B68B3F8502092B2134403EB0113B3F82D
:1011CC000424C2F30902A3F80424B3F804246FEA3C
:1011DC0042426FEA524292B2A3F804242B6862781E
:1011EC00002A3DD1B3F8502092B21344227803EB7D
:1011FC000213B3F80C24C2F30902A3F80C24B3F8BD
:10120C000C246FEA42426FEA524292B2A3F80C24C9
:10121C002178284602F04EFC16F4804F7FF433AF51
:10122C002A68217832F821309BB223F4E04323F072
:10123C00700343F4404343F0800322F8213022E74B
:10124C000023A361AEE7012BC8D12B68B3F8502063
:10125C0092B2134403EB01130022A3F80424BDE75C
:10126C00012AD5D1B3F8502092B21344227803EB63
:10127C0002130022A3F80C24CAE716F4804F0DD1F8
:10128C00286830F821309BB223F4E04323F070033C
:10129C0043F4404343F0800320F8213094F8243089
:1012AC00012B7FF4F0AE636913446361E36913446B
:1012BC00E361216A2369994224D3C91A21622A68FD
:1012CC006178002943D1B2F8501089B20A442178D0
:1012DC0002EB0112B2F80C14C1F30901A2F80C14C0
:1012EC003E2B1BD9580913F01F0F00D10138B2F84F
:1012FC000C1489B2800280B2014341F40041A2F87F
:10130C000C1426E021B9002384F824301346D6E7C8
:10131C000023236284F824300B46D0E74BB9B2F893
:10132C000C146FEA41416FEA514189B2A2F80C14D6
:10133C000FE0590813F0010F00D00131B2F80C0482
:10134C0080B2890289B20143A2F80C1401E0012990
:10135C0006D09BB262896169286801F065F892E653
:10136C00B2F8501089B20A44217802EB011299B2FA
:10137C00A2F80C14EDE72DE9F04105462868B0F809
:10138C00443013F4004F00F09282B0F84440A3B202
:10139C0014F00F0440F0E28013F0100F6BD00388B0
:1013AC009AB213F4006F40F09D8012F4004FE5D018
:1013BC00038823F070031B051B0D43F0800303808F
:1013CC002868B0F850309BB295F8682103EBC20343
:1013DC00063300EB4303B3F80034C3F30903C5F839
:1013EC0084318BB1D5F87C1171B1B5F86E2101F057
:1013FC0019FCD5F87C31D5F884211344C5F87C311F
:10140C000021284602F04AFB2A68138899B213F48B
:10141C00006FB3D101F44051B1F5405FAED0B2F8DA
:10142C0050309BB21A44B2F80C34C3F30903A2F83F
:10143C000C34D5F878313E2B77D9590913F01F0F9E
:10144C0000D10139B2F80C349BB2890289B20B433A
:10145C0043F40043A2F80C342A6813889BB223F49B
:10146C00804323F0700383F4405343F4004343F070
:10147C008003138082E703889BB223F4E14323F0BB
:10148C0070036FEA43436FEA53439BB203802A68AD
:10149C00B2F850309BB295F8281003EBC10302331D
:1014AC0002EB4302B2F80034C3F309036B64EA6B3A
:1014BC001A44EA630021284602F0FCFA95F824301D
:1014CC00002B3FF45BAF2B6C002B7FF457AF95F8E0
:1014DC0024302A6843F08003A2F84C30002385F8AE
:1014EC0024304BE7B0F850309BB295F8682103EBF1
:1014FC00C203063300EB4303B3F80034C3F3090310
:10150C00C5F88431B5F86E2105F52C7101F08AFB14
:10151C002A68138823F070031B051B0D43F080030E
:10152C001380284602F0B2FA28E74BB9B2F80C3413
:10153C006FEA43436FEA53439BB2A2F80C348BE738
:10154C00590813F0010F00D00131B2F80C3498B2E5
:10155C008B029BB20343A2F80C347DE730F82430A5
:10156C009EB213F4004F4CD116F0800F3FF406AF2F
:10157C00621C02EB820105EBC101286830F82430B3
:10158C009BB223F4E14323F070036FEA43436FEA09
:10159C0053439BB220F82430CB78012B00F0F2801F
:1015AC0016F4807F40F07E812868B0F850309BB2F2
:1015BC00621C02EB820215F8326003EBC6030233A5
:1015CC0000EB4303B3F80034C3F3090304EB8402C8
:1015DC0005EBC202126C9A4240F24C8104EB840778
:1015EC0005EBC707D21A3A6404EB840205EBC2027E
:1015FC00126C002A40F045813146284602F05AFA16
:10160C00BCE630F8243023F070031B051B0D43F0AF
:10161C00800320F8243004EB8401C90001F5B47177
:10162C0005EB010804EB840305EBC30393F8743159
:10163C00002B42D12868B0F850309BB204EB8402E6
:10164C0005EBC20292F8682103EBC203063300EBF0
:10165C004303B3F80074C7F3090717BB04EB840307
:10166C0005EBC303D3F884213A44C3F88421D3F89F
:10167C007C213A44C3F87C21D3F880313BB104EB94
:10168C00840305EBC303D3F878319F4275D204EB86
:10169C00840305EBC30393F86811284602F0FEF9A6
:1016AC0062E704EB840105EBC1013B46B1F86E2106
:1016BC00D1F87C1101F0B6FAD0E704EB840305EB0A
:1016CC00C30393F86B31022B35D0296804EB8402E9
:1016DC0005EBC20292F8680131F820309BB223F47A
:1016EC00E04323F0700343F4004343F0C00321F8BC
:1016FC002030286892F8682130F8223013F4804F9B
:10170C0020D0B0F850309BB203EBC203023300EB95
:10171C004303B3F80074C7F30907002F9ED004EB02
:10172C00840105EBC1013B46B1F87021D1F87C1165
:10173C0001F078FA92E7324641462846FFF7DAFA8A
:10174C0007468BE7B0F850309BB203EBC20306336D
:10175C0000EB4303B3F80074C7F30907002F3FF401
:10176C007DAF04EB840105EBC1013B46B1F872215E
:10177C00D1F87C1101F056FA70E74146286800F068
:10178C0066FEF1E604EB840305EBC30300221A6446
:10179C0093F83430FBB116F0400F37D04B781BBBAD
:1017AC002B68B3F8502092B21344621C02EB8202F5
:1017BC0015F8322003EB0213B3F80424C2F3090228
:1017CC00A3F80424B3F804246FEA42426FEA5242AD
:1017DC0092B2A3F80424013404EB840415F83410F9
:1017EC00284602F067F9C9E5012BF4D12B68B3F850
:1017FC00502092B21344621C02EB820215F8322084
:10180C0003EB02130022A3F80424E4E72A68631C08
:10181C0003EB830305EBC3035B78D3B9B2F8503009
:10182C009BB21344621C02EB820215F8322003EBCC
:10183C000213B3F80C24C2F30902A3F80C24B3F876
:10184C000C246FEA42426FEA524292B2A3F80C2483
:10185C00C1E7012BBFD1B2F850309BB21344621CCC
:10186C0002EB820215F8322003EB02130022A3F8DC
:10187C000C24B0E704EB840205EBC20200271764CA
:10188C00B2E604EB840205EBC202D66B1E44D663AF
:10189C00526C04EB840405EBC4041344636400F041
:1018AC00D6FD6BE532462846FFF753FB66E5002074
:1018BC00BDE8F08190F8A832012B0DD010B504468C
:1018CC00012380F8A83280F82410006800F09CFDF9
:1018DC00002084F8A80210BD0220704710B584B017
:1018EC000446006800F09AFD10F4004F20D110F46B
:1018FC00806F21D110F4804F2FD110F4005F37D1BD
:10190C0010F4805F3ED110F4006F40F0878010F42B
:10191C00007F40F0AE8010F4807F27D02268B2F8B0
:10192C0044309BB223F480739BB2A2F844301DE088
:10193C002046FFF720FD19E02268B2F844309BB234
:10194C0023F480639BB2A2F84430204602F0C3F823
:10195C0000212046FFF7AEFF08E02268B2F84430C1
:10196C009BB223F480439BB2A2F8443004B010BD68
:10197C002268B2F844309BB223F400539BB2A2F815
:10198C004430F3E72268B2F840309BB223F00403F2
:10199C009BB2A2F840302268B2F840309BB223F0E0
:1019AC0008039BB2A2F84030204602F0B7F8226838
:1019BC00B2F844309BB223F480539BB2A2F844306B
:1019CC00D4E7226832F8231004AA02EB430222F86F
:1019DC00101C0133DBB2072BF3D92268B2F840306C
:1019EC009BB243F00103A2F840302268B2F84030B9
:1019FC009BB223F001039BB2A2F840302368B3F8EA
:101A0C00442012F4806FF9D0B3F8442092B222F43F
:101A1C00806292B2A3F8442000230BE00023DAE7A3
:101A2C00226804A901EB430131F8101C22F82310A1
:101A3C000133DBB2072BF3D92268B2F840309BB2EA
:101A4C0043F00803A2F840302268B2F844309BB24D
:101A5C0023F400639BB2A2F844302268B2F8403001
:101A6C009BB243F00403A2F84030204602F046F843
:101A7C007CE72268B2F844309BB223F400739BB22B
:101A8C00A2F84430204602F020F86FE710B5044667
:101A9C00084611F0800F25D101F0070C0CEB8C01DE
:101AAC00C90001F5B47E04EB0E010CEB8C0C04EBBD
:101ABC00CC0C4FF0000E8CF869E100F007000870B8
:101ACC000A61CB70022B1AD094F8A832012B19D0D2
:101ADC00012384F8A832206800F050F9002084F823
:101AEC00A80210BD01F0070C0CF1010C0CEB8C01E1
:101AFC0004EBC1014FF0010E81F801E0DDE700239A
:101B0C000B71E1E70220ECE710B504460B4611F02F
:101B1C00800F1FD101F0070202EB8201C90001F511
:101B2C00B471014402EB820200EBC202002082F885
:101B3C00690103F007030B7094F8A832012B13D042
:101B4C00012384F8A832206800F0FDFA002084F804
:101B5C00A80210BD01F00702013202EB820100EB7A
:101B6C00C10101204870E4E70220F2E710B501F052
:101B7C00070C0CEB8C01C90001F5B4710CEB8C0E4D
:101B8C0000EBCE0ECEF87C21CEF880310024CEF8BE
:101B9C0084418EF869418EF868C10144006800F0F8
:101BAC0056FC204610BD01F0070101EB810100EB52
:101BBC00C100D0F88401704738B501F0070404F176
:101BCC00010C0CEB8C0104EB840E00EBCE0ECEF86A
:101BDC003C20CEF8403001228EF84C20CEF8483014
:101BEC000025CEF8445000EBC1035A7000F8314088
:101BFC001946006800F02BFC284638BD38B501F0BA
:101C0C0007054268954231D804460B4611F0800F07
:101C1C001ED101EB8101C90001F5B471014403EB44
:101C2C00830300EBC303002283F8692101238B702B
:101C3C000D7094F8A832012B1AD0012384F8A83225
:101C4C00206800F06BFB5DB1002084F8A80238BD61
:101C5C006B1C03EB830100EBC10101224A70E5E729
:101C6C0004F52C71206800F0DDFBEDE70120EEE7B8
:101C7C000220ECE70B4601F00F014268914230D88C
:101C8C0010B5044613F0800F21D103F0070202EBCC
:101C9C008201C90001F5B471014402EB820200EB30
:101CAC00C202002082F8690100228A7003F0070347
:101CBC000B7094F8A832012B15D0012384F8A832AC
:101CCC00206800F050FB002084F8A80210BD03F03F
:101CDC000702013202EB820100EBC10101204870C6
:101CEC00E2E7012070470220F0E711F0800F0BD0E3
:101CFC0001F00701013101EB810100EBC10052B988
:101D0C000273C3800020704701EB8101C90001F50B
:101D1C00B4710844F3E70122027303811B0C438165
:101D2C00F0E784B001A880E80E00002004B07047F2
:101D3C0003460020A3F844004FF43F42A3F8402090
:101D4C007047B0F8403023F47C535B045B0CA0F874
:101D5C004030002070470020704784B0844601A8B2
:101D6C0080E80E000123ACF840300020ACF84000B5
:101D7C00ACF84400ACF8500004B0704710B5034602
:101D8C0091F800C030F82C2092B222F4EC4222F0F0
:101D9C00700292B2C878032861D8DFE800F0555C75
:101DAC000258002048F2800E42EA0E0223F82C2042
:101DBC0091F800C033F82C2092B222F4E04222F0C9
:101DCC00700242EA0C0242EA0E0223F82C200A7B33
:101DDC00002A40F0DC804A78002A51D0B3F8502019
:101DEC0092B21A440C7802EB0412B1F806C04FEA16
:101DFC005C0C4FEA4C0CA2F800C40C7833F824208D
:101E0C0012F0400F0CD033F8242092B222F4E042AE
:101E1C0022F0700242F4004242F0C00223F8242067
:101E2C00CA78012A1DD0097833F8212092B222F405
:101E3C00E04222F0400282F0200242F4004242F0E2
:101E4C00800223F8212017E142F40072AAE742F441
:101E5C00C0620020A6E742F480620020A2E70120C5
:101E6C00A0E7097833F8212092B222F4E04222F064
:101E7C00400242F4004242F0800223F82120FBE0B1
:101E8C00B3F8502092B21A440C7802EB0412B1F859
:101E9C0006C04FEA5C0C4FEA4C0CA2F808C4B3F82D
:101EAC00502092B21A440C7802EB0412B2F80CC413
:101EBC00CCF3090CA2F80CC40C693E2C39D94FEAAE
:101ECC00541E14F01F0F01D10EF1FF3EB2F80CC4DA
:101EDC001FFA8CFC4FEA8E2E1FFA8EFE4CEA0E0C6B
:101EEC004CF4004CA2F80CC40C7833F8242012F4F7
:101EFC00804F0CD033F8242092B222F4E04222F02E
:101F0C00700242F4404242F0800223F82420097807
:101F1C0069BB33F8212092B222F4804222F0700285
:101F2C0082F4405242F4004242F0800223F8212015
:101F3C00A2E04CB9B2F80C446FEA44446FEA544442
:101F4C00A4B2A2F80C44CFE74FEA540C14F0010FE2
:101F5C0001D00CF1010CB2F80C44A4B24FEA8C2C59
:101F6C001FFA8CFC44EA0C04A2F80C44BCE733F8CE
:101F7C00212092B222F4804222F0700282F40052AC
:101F8C0042F4004242F0800223F8212074E0CA7827
:101F9C00022A72D00C7833F8242092B222F4E24256
:101FAC0022F0700242F4004242F0800223F8242016
:101FBC00B3F8502092B21A4491F800C002EB0C1204
:101FCC00B1F808C04FEA5C0C4FEA4C0CA2F800C404
:101FDC00B3F8502092B21A4491F800C002EB0C12E4
:101FEC00B1F80AC04FEA5C0C4FEA4C0CA2F808C4DA
:101FFC004A78002A50D10C7833F8242012F4804F00
:10200C000CD033F8242092B222F4E04222F0700279
:10201C0042F4404242F0800223F824200C7833F83A
:10202C00242012F0400F0CD033F8242092B222F46A
:10203C00E04222F0700242F4004242F0C00223F867
:10204C00242091F800C033F82C2092B222F4804264
:10205C0022F0700282F4405248F28004224323F8AA
:10206C002C20097833F8212092B222F4E04222F09D
:10207C004002224323F8212010BD0C7833F8242091
:10208C0092B222F4E04222F0700242F4014242F099
:10209C00800223F824208BE70C7833F8242012F4E8
:1020AC00804F0CD033F8242092B222F4E04222F07C
:1020BC00700242F4404242F0800223F824200C7853
:1020CC0033F8242012F0400F0CD033F8242092B2B5
:1020DC0022F4E04222F0700242F4004242F0C002CC
:1020EC0023F82420CA78012A1ED00C7833F8242037
:1020FC0092B222F4E04222F0400282F0200242F43A
:10210C00004242F0800223F82420097833F8212081
:10211C0092B222F4804222F0700242F4004242F069
:10212C00800223F82120A7E70C7833F8242092B200
:10213C0022F4E04222F0400242F4004242F08002DB
:10214C0023F82420E1E70B7B002B46D14B7813B30B
:10215C000A7830F8223013F0400F0CD030F82230CF
:10216C009BB223F4E04323F0700343F4004343F0A9
:10217C00C00320F822300A7830F822309BB223F4C6
:10218C00E04323F0400343F4004343F0800320F882
:10219C002230002070470A7830F8223013F4804F38
:1021AC000CD030F822309BB223F4E04323F07003C0
:1021BC0043F4404343F0800320F822300A7830F88F
:1021CC0022309BB223F4804323F0700343F400438A
:1021DC0043F0800320F82230DBE74B78002B4ED104
:1021EC000A7830F8223013F4804F0CD030F82230BB
:1021FC009BB223F4E04323F0700343F4404343F0D9
:10220C00800320F822300A7830F8223013F0400F87
:10221C000CD030F822309BB223F4E04323F070034F
:10222C0043F4004343F0C00320F822300A7830F81E
:10223C0022309BB223F4E04323F0700343F40043B9
:10224C0043F0C00320F822300A7830F822309BB2D9
:10225C0023F4804323F0700348F2800C43EA0C0310
:10226C0020F822300A7830F822309BB223F4E04375
:10227C0023F0400343EA0C0320F8223089E70A7864
:10228C0030F8223013F4804F0CD030F822309BB24F
:10229C0023F4E04323F0700343F4404343F0800302
:1022AC0020F822300A7830F8223013F0400F0CD08E
:1022BC0030F822309BB223F4E04323F0700343F454
:1022CC00004343F0C00320F822300A7830F8223063
:1022DC009BB223F4E04323F0700343F4404343F0F8
:1022EC00800320F822300A7830F822309BB223F495
:1022FC00E04323F0400348F2800C43EA0C0320F83F
:10230C0022300A7830F822309BB223F4804323F039
:10231C00700343EA0C0320F822303AE74B788BB178
:10232C000A7830F822309BB223F4E04323F04003C8
:10233C0083F0100343F4004343F0800320F8223071
:10234C00002070470A7830F822309BB223F4804387
:10235C0023F0700383F4805343F4004343F0800371
:10236C0020F82230ECE70B7B002B4BD14B7833B3AE
:10237C000A7830F8223013F0400F0CD030F82230AD
:10238C009BB223F4E04323F0700343F4004343F087
:10239C00C00320F82230CB78012B33D00A7830F8E8
:1023AC0022309BB223F4E04323F0400383F020035C
:1023BC0043F4004343F0800320F8223022E00A78F3
:1023CC0030F8223013F4804F0CD030F822309BB20E
:1023DC0023F4E04323F0700343F4404343F08003C1
:1023EC0020F822300A7830F822309BB223F4804354
:1023FC0023F0700383F4405343F4004343F0800311
:10240C0020F822300020704711B98023A0F84C30FE
:10241C00002070470020704700207047B0F844003F
:10242C0080B270470020704701335B0800EB42001C
:10243C0000F5806008E00A7891F801C042EA0C22AD
:10244C0020F8042B0231013B002BF4D1704770B5FE
:10245C0005460C464A78012A3BD00B7B002B40F0FA
:10246C00A6828B690A69934240F284829B1A8B6123
:10247C00B5F850309BB22B44217803EB0113B3F821
:10248C000C14C1F30901A3F80C143E2A40F2768215
:10249C00510912F01F0F00D10139B3F80C2492B27C
:1024AC00890289B20A4342F40042A3F80C24227830
:1024BC0035F822309BB223F4804323F0700383F46D
:1024CC00405343F4004343F0800325F822300020AE
:1024DC0070BD8E6909698E4200D90E46237B73B399
:1024EC00E378022B4DD0236A9B1B2362217835F8AD
:1024FC00213013F0400F00F0F581002A40F0E2810A
:10250C00B5F850309BB22B4403EB0113B3F80C24F9
:10251C00C2F30902A3F80C243E2E40F2BA817109D1
:10252C0016F01F0F00D10139B3F80C2492B28902B6
:10253C0089B20A4342F40042A3F80C24CBE1B6B2B0
:10254C003346E28861692846FFF76EFFB5F85030D4
:10255C009BB22B44227803EB0213A3F80464227879
:10256C0035F822309BB223F4E04323F0400383F090
:10257C00300343F4004343F0800325F8223000205D
:10258C00A6E7236A994280F06681227835F82230DA
:10259C009BB223F4E04323F0700343F4014343F074
:1025AC00800325F82230236A9B1B2362227835F89E
:1025BC00223013F0400F00F0A7806378B3BBB5F85E
:1025CC0050309BB22B4403EB0213B3F80C24C2F330
:1025DC000902A3F80C243E2E0FD9710916F01F0F17
:1025EC0000D10139B3F80C2492B2890289B20A43A2
:1025FC0042F40042A3F80C241AE04EB9B3F80C24B0
:10260C006FEA42426FEA524292B2A3F80C240FE0F6
:10261C00720816F0010F00D00132B3F80C1489B215
:10262C00920292B20A43A3F80C2401E0012B30D0A1
:10263C00B3B2628961692846FFF7F6FE63693344D9
:10264C006361236A226993422DD99B1B23626378B1
:10265C00002B45D1B5F850309BB22B44227803EBBC
:10266C000213B3F80424C2F30902A3F804243E2E87
:10267C001DD9710916F01F0F00D10139B3F80424CC
:10268C0092B2890289B20A4342F40042A3F80424AC
:10269C0028E0B5F850309BB22B4403EB0213B2B2D6
:1026AC00A3F80C24C4E7002222621E46CFE74EB9E1
:1026BC00B3F804246FEA42426FEA524292B2A3F892
:1026CC0004240FE0720816F0010F00D00132B3F8A9
:1026DC00041489B2920292B20A43A3F8042401E0D2
:1026EC00012B06D0B3B2228961692846FFF79CFE04
:1026FC0035E7B5F850309BB22B44227803EB02132C
:10270C00B2B2A3F80424EDE76378B3BBB5F850304C
:10271C009BB22B4403EB0213B3F80424C2F309025B
:10272C00A3F804243E2E0FD9710916F01F0F00D107
:10273C000139B3F8042492B2890289B20A4342F4F3
:10274C000042A3F804241AE04EB9B3F804246FEA4B
:10275C0042426FEA524292B2A3F804240FE072088C
:10276C0016F0010F00D00132B3F8041489B29202B2
:10277C0092B20A43A3F8042401E0012B30D0B3B287
:10278C00228961692846FFF74FFE63693344636110
:10279C00236A226993422DD99B1B23626378002BF9
:1027AC0045D1B5F850309BB22B44227803EB021381
:1027BC00B3F80C24C2F30902A3F80C243E2E1DD945
:1027CC00710916F01F0F00D10139B3F80C2492B225
:1027DC00890289B20A4342F40042A3F80C2428E08F
:1027EC00B5F850309BB22B4403EB0213B2B2A3F8F2
:1027FC000424C4E7002222621E46CFE74EB9B3F888
:10280C000C246FEA42426FEA524292B2A3F80C24B3
:10281C000FE0720816F0010F00D00132B3F80C145F
:10282C0089B2920292B20A43A3F80C2401E0012B64
:10283C0006D0B3B2628961692846FFF7F5FD8EE6D2
:10284C00B5F850309BB22B44227803EB0213B2B292
:10285C00A3F80C24EDE7217835F8212092B222F46C
:10286C00E24222F0700242F4004242F0800225F86B
:10287C002120B5F8502092B22A44217802EB0112A3
:10288C009BB2A2F80434228961692846FFF7CCFD7B
:10289C0065E64EB9B3F80C246FEA42426FEA524235
:1028AC0092B2A3F80C2416E0720816F0010F00D0B7
:1028BC000132B3F80C1489B2920292B20A43A3F813
:1028CC000C2408E0B5F850309BB22B4403EB0113F9
:1028DC00B2B2A3F80C24B3B2628961692846FFF73F
:1028EC00A3FD3CE6B2BBB5F850309BB22B4403EBD6
:1028FC000113B3F80424C2F30902A3F804243E2EF6
:10290C000FD9710916F01F0F00D10139B3F8042447
:10291C0092B2890289B20A4342F40042A3F8042419
:10292C0021E04EB9B3F804246FEA42426FEA5242F6
:10293C0092B2A3F8042416E0720816F0010F00D02E
:10294C000132B3F8041489B2920292B20A43A3F88A
:10295C00042408E0B5F850309BB22B4403EB011370
:10296C00B2B2A3F80424B3B2228961692846FFF7F6
:10297C005BFDF4E500228A611A4679E54AB9B3F8A1
:10298C000C246FEA42426FEA524292B2A3F80C2432
:10299C008DE5510812F0010F00D00131B3F80C2471
:1029AC0092B2890289B20A43A3F80C247FE5CB7852
:1029BC00022B4DD0012B40F0338189692369994258
:1029CC0040F2EA80C91AA161F2B9B5F8502092B26E
:1029DC002A44217802EB0112B2F80414C1F3090164
:1029EC00A2F804143E2B40F2DB80580913F01F0FA1
:1029FC0000D10138B2F8041489B2800280B20143CC
:102A0C0041F40041A2F804146278002A40F0FA80E4
:102A1C00B5F8502092B22A44217802EB0112B2F898
:102A2C000C14C1F30901A2F80C143E2B40F2D18016
:102A3C00590913F01F0F00D10139B2F80C349BB2B5
:102A4C00890289B20B4343F40043A2F80C342EE5FF
:102A5C00F2B9B0F850309BB203440A7803EB02137E
:102A6C00B3F80424C2F30902A3F804240A693E2A29
:102A7C0031D9510912F01F0F00D10139B3F80424D8
:102A8C0092B2890289B20A4342F40042A3F80424A8
:102A9C006378002B51D1B5F850309BB22B4422787F
:102AAC0003EB0213B3F80C24C2F30902A3F80C24B1
:102ABC0022693E2A28D9510912F01F0F00D1013981
:102ACC00B3F80C2492B2890289B20A4342F4004250
:102ADC00A3F80C2433E04AB9B3F804246FEA424259
:102AEC006FEA524292B2A3F80424D1E7510812F0D3
:102AFC00010F00D00131B3F8042490B28A0292B2D3
:102B0C000243A3F80424C3E74AB9B3F80C246FEAD0
:102B1C0042426FEA524292B2A3F80C240FE05108E1
:102B2C0012F0010F00D00131B3F80C2490B28A02DC
:102B3C0092B20243A3F80C2401E0012B1CD0E369F0
:102B4C00002B3FF4B4AC227835F8223099B213F450
:102B5C00804F1CD011F0400F3FF4A9AC35F8223057
:102B6C009BB223F4E04323F0700343F4004343F09F
:102B7C00C00325F822309AE4B5F850309BB22B44B0
:102B8C00227803EB0213228AA3F80C24D7E711F066
:102B9C00400F7FF48CACE1E70023A3610B4613E7F5
:102BAC004BB9B2F804146FEA41416FEA514189B252
:102BBC00A2F8041428E7590813F0010F00D00131D2
:102BCC00B2F8040480B2890289B20143A2F8041459
:102BDC001AE74BB9B2F80C346FEA43436FEA53432C
:102BEC009BB2A2F80C3462E4590813F0010F00D028
:102BFC000131B2F80C3498B28B029BB20343A2F8A9
:102C0C000C3454E4012A7FF452ACB5F8502092B243
:102C1C002A44217802EB01129BB2A2F80C3446E450
:102C2C00012055E410B45C0800EB420000F5806014
:102C3C0007E030F8042B0A70C2F307224A70023105
:102C4C00013C002CF5D113F0010F01D003880B705F
:102C5C0010BC704710B504460E4B18680E4B1A7812
:102C6C004FF47A73B3FBF2F3B0FBF3F000F0E8FD32
:102C7C0068B90F2C01D901200AE0002221464FF03F
:102C8C00FF3000F0BFFD054B1C60002000E0012070
:102C9C0010BD00BF3800002031000020340000209F
:102CAC0008B5074A136843F010031360032000F0C3
:102CBC0097FD0F20FFF7CEFFFDF74CFD002008BD60
:102CCC0000200240034A1168034B1B780B4413602D
:102CDC00704700BF3005002031000020014B186800
:102CEC00704700BF3005002038B50446FFF7F6FFEB
:102CFC000546B4F1FF3F02D0044B1B781C44FFF790
:102D0C00EDFF401BA042FAD338BD00BF31000020BC
:102D1C0082B0084B1B68084AA2FB03235B0A00FB2A
:102D2C0003F3019300BF019B5A1E0192002BF9D1B2
:102D3C0002B0704738000020D34D6210002800F01C
:102D4C00F18170B582B00446036813F0010F2CD0EA
:102D5C00994B5B6803F00C03042B1DD0964B5B68FE
:102D6C0003F00C03082B12D06368B3F5803F41D0FD
:102D7C00002B55D103F1804303F504331A6822F478
:102D8C0080321A601A6822F480221A6037E08A4B6B
:102D9C005B6813F4803FE7D0874B1B6813F4003F4C
:102DAC0003D06368002B00F0BF81236813F0020F7F
:102DBC0075D0814B5B6813F00C0F5FD07E4B5B685A
:102DCC0003F00C03082B54D02369002B00F08A80ED
:102DDC007A4B01221A60FFF781FF0546764B1B6880
:102DEC0013F0020F75D1FFF779FF401B0228F5D9BC
:102DFC0003209EE1704A136843F4803313606368C8
:102E0C0043B3FFF76BFF05466B4B1B6813F4003F96
:102E1C00CBD1FFF763FF401B6428F5D9032088E171
:102E2C00B3F5A02F09D0644B1A6822F480321A60D3
:102E3C001A6822F480221A60E1E703F18043A3F5BB
:102E4C003C331A6842F480221A601A6842F48032C9
:102E5C001A60D4E7FFF742FF0546574B1B6813F483
:102E6C00003FA2D0FFF73AFF401B6428F5D903209E
:102E7C005FE1514B5B6813F4803FA5D14E4B1B684F
:102E8C0013F0020F03D02369012B40F04F814A4A03
:102E9C00136823F0F803616943EAC10313602368E4
:102EAC0013F0080F33D0A369002B5CD0434B0122E5
:102EBC00C3F88024FFF712FF05463F4B5B6A13F003
:102ECC00020F21D1FFF70AFF401B0228F5D903207E
:102EDC002FE1394A136823F0F803616943EAC1030F
:102EEC001360DCE7354B00221A60FFF7F7FE05464E
:102EFC00314B1B6813F0020FD1D0FFF7EFFE401BD4
:102F0C000228F5D9032014E10120FFF701FF236803
:102F1C0013F0040F00F09680274BDB6913F0805FF1
:102F2C0034D1254BDA6942F08052DA61DB6903F067
:102F3C0080530193019B0125214B1B6813F4807F67
:102F4C0026D0E368012B3DD0002B53D103F18043F5
:102F5C0003F504331A6A22F001021A621A6A22F08B
:102F6C0004021A6233E0154B0022C3F88024FFF7E9
:102F7C00B5FE0546104B5B6A13F0020FC7D0FFF786
:102F8C00ADFE401B0228F5D90320D2E00025D3E783
:102F9C000B4A136843F480731360FFF79FFE0646D9
:102FAC00074B1B6813F4807FCBD1FFF797FE801B78
:102FBC006428F5D90320BCE0001002400000424216
:102FCC00007000405F4A136A43F001031362E36828
:102FDC0033B3FFF783FE06465A4B1B6A13F0020FFE
:102FEC002FD1FFF77BFE801B41F288339842F3D937
:102FFC0003209EE0052B09D0524B1A6A22F00102E5
:10300C001A621A6A22F004021A62E0E74D4B1A6A3D
:10301C0042F004021A621A6A42F001021A62D6E7FE
:10302C00FFF75CFE0646474B1B6A13F0020F08D0F5
:10303C00FFF754FE801B41F288339842F3D90320EA
:10304C0077E0E5B9E369002B72D03E4A526802F092
:10305C000C02082A56D0022B17D03B4B00221A66C2
:10306C00FFF73CFE0446374B1B6813F0007F47D03C
:10307C00FFF734FE001B0228F5D9032059E0314A32
:10308C00D36923F08053D361DCE72F4B00221A66FF
:10309C00FFF724FE05462B4B1B6813F0007F06D070
:1030AC00FFF71CFE401B0228F5D9032041E0236AE0
:1030BC00B3F5803F1AD023494B6823F47413226A6A
:1030CC00606A024313434B601F4B01221A66FFF7E1
:1030DC0005FE04461B4B1B6813F0007F0ED1FFF757
:1030EC00FDFD001B0228F5D9032022E0154A536888
:1030FC0023F40033A1680B435360DCE7002018E095
:10310C00002016E0012B16D00E4B5B6803F48031C7
:10311C00226A914211D103F47013626A93420ED168
:10312C00002006E001207047012002E0012000E0B1
:10313C00002002B070BD0120FBE70120F9E701205F
:10314C00F7E700BF00100240000042420F4B5B68E3
:10315C0003F00C02082A01D00D487047C3F38342D8
:10316C000C49885C13F4803F0BD0084B5B68C3F3AD
:10317C004043094AD35C064A02FB00F0B0FBF3F073
:10318C007047064B03FB00F0704700BF0010024075
:10319C0000127A00246100082061000800093D003B
:1031AC00002800F0A08070B50D460446524B1B68F9
:1031BC0003F007038B420BD24F4A136823F007032B
:1031CC000B431360136803F007038B4240F08D80B0
:1031DC00236813F0020F17D013F0040F04D0474AE2
:1031EC00536843F4E0635360236813F0080F04D072
:1031FC00424A536843F460535360404A536823F087
:10320C00F003A1680B435360236813F0010F31D016
:10321C006368012B20D0022B25D0384A126812F09B
:10322C00020F64D035494A6822F0030213434B6005
:10323C00FFF754FD0646314B5B6803F00C036268E4
:10324C00B3EB820F16D0FFF749FD801B41F2883398
:10325C009842F0D9032045E0284A126812F4003F46
:10326C00E0D101203EE0254A126812F0007FD9D14E
:10327C00012037E0204B1B6803F00703AB420AD94F
:10328C001D4A136823F007032B431360136803F0E4
:10329C000703AB422DD1236813F0040F06D0174A55
:1032AC00536823F4E063E1680B435360236813F025
:1032BC00080F07D0114A536823F46053216943EA7D
:1032CC00C1035360FFF742FF0C4B5B68C3F303135E
:1032DC000B4AD35CD8400B4B18600B4B1868FFF7AC
:1032EC00B9FC002070BD012070470120FAE70120D5
:1032FC00F8E70120F6E700BF002002400010024072
:10330C003C6100083800002034000020014B186894
:10331C00704700BF3800002008B5FFF7F7FF044BDB
:10332C005B68C3F30223034AD35CD84008BD00BFDB
:10333C00001002403461000808B5FFF7E7FF044BAA
:10334C005B68C3F3C223034AD35CD84008BD00BFFB
:10335C00001002403461000870B582B00446036866
:10336C0013F0010F36D03F4BDB6913F0805F4AD16D
:10337C003C4BDA6942F08052DA61DB6903F080532E
:10338C000193019B0125384B1B6813F4807F3CD0C3
:10339C00344B1B6A13F4407313D0626802F440720E
:1033AC009A420ED02F4A136A23F440702F490126FB
:1033BC00C1F840640026C1F84064106213F0010F9C
:1033CC0037D1284A136A23F4407361680B431362A4
:1033DC00002D3FD1236813F0020F06D0214A536809
:1033EC0023F44043A1680B435360236813F0100F80
:1033FC0035D01C4A536823F48003E1680B435360B7
:10340C00002002B070BD0025BDE7174A136843F4D5
:10341C0080731360FFF762FC0646134B1B6813F4B2
:10342C00807FB5D1FFF75AFC801B6428F5D90320A7
:10343C00E7E7FFF753FC06460A4B1B6A13F0020F33
:10344C00BFD1FFF74BFC801B41F288339842F3D974
:10345C000320D6E7D36923F08053D361BAE7002069
:10346C00CFE700BF00100240007000400000424255
:10347C0070B582B00024A4469EE07C4DAB4214D0C3
:10348C000CD8A5F58015AB420FD005F57025AB42D5
:10349C000BD0A5F58015AB421FD106E0744DAB42A5
:1034AC0003D005F58035AB4217D18B68A3B1012B46
:1034BC000DD04261082410E0CC680EE0CC680434D6
:1034CC000BE0CC68083408E0CC680C3405E00261F1
:1034DC00082402E0002400E00424BEF1FF0F37D8DA
:1034EC0006464FEA8C0233680F25954023EA050304
:1034FC0004FA02F2134333604B6813F0805F59D027
:10350C005C4B9A6942F001029A619B6903F00103DA
:10351C000193019B4FEA9C02951C574B53F8256075
:10352C000CF00305AD000F23AB4026EA0306534B0A
:10353C00984214D003F58063984279D003F58063E8
:10354C00984277D003F58063984206D0042307E0B5
:10355C00061DACF108029200C5E7032300E000232E
:10356C00AB4033430232444D45F822304B6813F4E0
:10357C00801F61D0424A936843EA0E0393604B6804
:10358C0013F4001F5ED03E4AD36843EA0E03D360A7
:10359C004B6813F4003F5BD0394A536843EA0E037F
:1035AC0053604B6813F4803F58D0354A136843EA94
:1035BC000E0313600CF1010C0B6833FA0CF253D0B0
:1035CC00012202FA0CF203EA020E32EA0303F1D1F1
:1035DC004B68122B3FF651AF122B3FF67EAF01A575
:1035EC0055F823F0B7340008C5340008CF34000870
:1035FC00E1340008E7340008E7340008E734000839
:10360C00E7340008E7340008E7340008E734000822
:10361C00E7340008E7340008E7340008E734000812
:10362C00E7340008E7340008C9340008D534000832
:10363C00012395E7022393E7114A936823EA0E03CB
:10364C0093609CE70E4AD36823EA0E03D3609FE78E
:10365C000B4A536823EA0E035360A2E7084A136827
:10366C0023EA0E031360A5E702B070BD0000221020
:10367C000000311000100240000001400008014021
:10368C00000401408368194201D0012070470020DA
:10369C0070470AB101617047090401617047034624
:1036AC0090F82120022A06D004228263002280F89E
:1036BC0020200120704701680A6822F00E020A607F
:1036CC0001680A6822F001020A60026CC06B0121D9
:1036DC0001FA02F2426083F82110002083F82000E6
:1036EC007047000008B590F82130022B03D004235A
:1036FC008363012008BD0268136823F00E03136076
:10370C000268136823F0010313600368194A93429B
:10371C0014D0143293421FD0143293421ED0143260
:10372C0093421ED0143293421ED01432934202D0D4
:10373C004FF0807203E04FF4801200E001220E4B38
:10374C005A60012380F82130002380F82030436B2D
:10375C006BB198470020CDE71022F0E74FF4807250
:10376C00EDE74FF48052EAE74FF48032E7E70020B0
:10377C00C0E700BF0800024000000240002808DB40
:10378C000901C9B200F1604000F5614080F80013F6
:10379C00704700F00F000901C9B2014B1954704772
:1037AC0014ED00E000B500F00700C0F1070CBCF10F
:1037BC00040F28BF4FF0040C031D062B0ED9C31E9B
:1037CC004FF0FF3E0EFA0CF021EA000199400EFA80
:1037DC0003FE22EA0E0241EA020000BD0023EFE7DD
:1037EC00074AD36823F4E0631B041B0C000200F4AB
:1037FC00E060034343F0BF6343F40033D36070478E
:10380C0000ED00E010B50446054BD868C0F302206B
:10381C00FFF7C8FF01462046FFF7B0FF10BD00BF01
:10382C0000ED00E0002807DB00F01F024009012337
:10383C009340024A42F82030704700BF00E100E09C
:10384C000138B0F1807F0BD24FF0E0235861054A6C
:10385C00F02182F823100020986107221A6170472A
:10386C000120704700ED00E07047000008B5002211
:10387C000F49104800F071FD70B90F490D4800F068
:10388C0083FD60B90D490B4801F087FB50B909481D
:10389C0000F081FD48B908BDFCF702FEEDE7FCF72E
:1038AC00FFFDEFE7FCF7FCFDF1E7FCF7F9FDF2E7B4
:1038BC007000002034050020680100208C000020DE
:1038CC0012230B80004870475C00002004230B80FF
:1038DC000048704758000020002393421DD200B5C9
:1038EC0010E00CF1370C01F813C000014FEA430C47
:1038FC000CF1010C4FF0000E01F80CE00133DBB2BF
:10390C00934209D24FEA107CB0F1204FE9D20CF16E
:10391C00300C01F813C0E8E700BD704738B50B4B0D
:10392C00D3F8E807D3F8EC47D3F8F037C01800D138
:10393C0038BD074D08222946FFF7CEFF042205F1BA
:10394C0010012046FFF7C8FFF2E700BF00F0FF1F91
:10395C003E00002008B51A230B80FFF7DFFF01485B
:10396C0008BD00BF3C00002008B50A4628B905492F
:10397C00054801F068F9034808BD0249024801F006
:10398C0062F9F8E7F8070020D860000810B50A467D
:10399C00034C2146034801F056F9204610BD00BFE8
:1039AC00F8070020F060000808B50A4628B9054958
:1039BC00054801F048F9034808BD0249024801F0E6
:1039CC0042F9F8E7F80700200461000808B50A4638
:1039DC0028B90549054801F036F9034808BD0249E4
:1039EC00024801F030F9F8E7F807002010610008F0
:1039FC00002070470020704710B50146044C20464B
:103A0C0001F0DAFA204601F0DDFA002010BD00BF0B
:103A1C003405002010B5064C00220649204601F062
:103A2C00C3FA0549204601F0C7FA002010BD00BFBB
:103A3C0034050020F8090020F80D0020022805D8D4
:103A4C00DFE800F0050402000120704702207047F7
:103A5C0002680D4B9A4200D0704700B583B003F555
:103A6C00DA33DA6942F40002DA61DB6903F4000349
:103A7C000193019B002211461420FFF7C3FE142072
:103A8C00FFF7D0FE03B000BD005C004008B500F5A8
:103A9C002C71D0F8EC0200F096FC08BD08B501EBD7
:103AAC00810300EBC303D3F87C21D0F8EC0200F0C7
:103ABC00B7FC08BD08B501EB810300EBC303DA6B5F
:103ACC00D0F8EC0200F0F2FC08BD08B5D0F8EC021E
:103ADC0000F093FD08BD10B504468368022B09D194
:103AEC000121D4F8EC0200F071FDD4F8EC0200F0E6
:103AFC0045FD10BDFCF7D4FCF2E7000010B5044600
:103B0C00D0F8EC0200F065FDA36923B1024A1369F9
:103B1C0043F00603136110BD00ED00E008B5D0F8CA
:103B2C00EC0200F05FFD08BD10B504461D48C0F85E
:103B3C00EC42C4F8C0021C4B036008234360022310
:103B4C00836000238361C3610362FDF761F930BBBD
:103B5C00182300221146D4F8C002FEF7C6F85823E9
:103B6C0000228021D4F8C002FEF7BFF8C023002247
:103B7C008121D4F8C002FEF7B8F84FF48873002204
:103B8C000121D4F8C002FEF7B0F84FF48073002284
:103B9C008221D4F8C002FEF7A8F8002010BDFCF773
:103BAC007FFCD5E718140020005C004008B5D0F865
:103BBC00C002FDF7B5F9FFF741FF08BD08B5944603
:103BCC001A466346D0F8C002FDF760FFFFF736FFD8
:103BDC0008BD08B5D0F8C002FDF796FFFFF72EFF21
:103BEC0008BD08B5D0F8C002FEF708F8FFF726FFAD
:103BFC0008BD08B5D0F8C002FEF73CF8FFF71EFF71
:103C0C0008BDD0F8C03211F0800F08D101F07F014F
:103C1C0001EB810103EBC10393F86A01704701F0DA
:103C2C007F01013101EB810103EBC10398787047EF
:103C3C0008B5D0F8C002FDF73DFEFFF7FFFE08BD4A
:103C4C0008B5D0F8C002FDF7B7FFFFF7F7FE08BDC7
:103C5C0008B5D0F8C002FDF789FFFFF7EFFE08BDED
:103C6C0008B5D0F8C002FDF79EFF08BD00487047AC
:103C7C00F811002070477047026802F10C0353E8FA
:103C8C00003F23F490730C3242E800310029F3D149
:103C9C00026802F1140353E8003F23F001031432CD
:103CAC0042E800310029F3D1036B012B05D020230E
:103CBC0080F84230002303637047026802F10C0362
:103CCC0053E8003F23F010030C3242E80031002986
:103CDC00F3D1ECE790F84130212B01D00220704752
:103CEC008368B3F5805F17D0036A5A1C02621A7896
:103CFC0003685A60C38C9BB2013B9BB2C3844BB923
:103D0C000268D36823F08003D3600268D36843F061
:103D1C004003D360002070470369002BE4D1036A91
:103D2C001B880268C3F308035360036A02330362FF
:103D3C00E0E7000010B504460268136923F4405311
:103D4C00C1680B43136183680269134342691A43C8
:103D5C000168CB6823F4B05323F00C031343CB60FE
:103D6C000268536923F4407381690B435361026801
:103D7C00134B9A4220D0FFF7CFFA024602EB820295
:103D8C0002EB820263689B00B2FBF3F20D48A0FBCE
:103D9C0002314909642303FB11231B013233A0FBBD
:103DAC0003035B0903F0F00202EB011203F00F03B3
:103DBC00216813448B6010BDFFF7BEFA0246DDE7A5
:103DCC00003801401F85EB512DE9F84305460F469D
:103DDC0016469946DDF820802B681C6837EA0404E7
:103DEC000CBF01240024B4422DD1B8F1FF3FF3D015
:103DFC00B8F1000F05D0FEF771FFA0EB09004045AC
:103E0C00EAD92A6802F10C0353E8003F23F4D0737B
:103E1C000C3242E800310029F3D12A6802F1140374
:103E2C0053E8003F23F00103143242E8003100292B
:103E3C00F3D1202385F8413085F84230002385F8F2
:103E4C004030032000E00020BDE8F88360B310B5DB
:103E5C00044690F8413013B3242384F8413022688F
:103E6C00D36823F40053D3602046FFF763FF226826
:103E7C00136923F4904313612268536923F02A03D6
:103E8C0053612268D36843F40053D360002060640C
:103E9C00202384F8413084F84230606310BD80F8F0
:103EAC004030FCF795FCD7E7012070472DE9F04135
:103EBC0082B01E4690F84130202B4BD104460D4663
:103ECC00904600294AD00AB9012044E000234364FB
:103EDC00212380F84130FEF701FF0746A4F8248027
:103EEC00A4F82680A368B3F5805F02D04FF00008D9
:103EFC000FE02369FBB14FF000080AE038F8023BF1
:103F0C002268C3F308035360E28C92B2013A92B276
:103F1C00E284E38C9BB28BB100963B46002280215D
:103F2C002046FFF751FFD8B9002DE7D015F8012B2B
:103F3C0023685A60E8E7A8460025EAE700963B4666
:103F4C00002240212046FFF73FFF58B9202384F878
:103F5C00413000E0022002B0BDE8F0810120FAE718
:103F6C000320F8E70320F6E7704708B50168CA6834
:103F7C0022F04002CA60202280F84120FFF7F4FFB3
:103F8C00002008BD704708B5406A0023C385C38470
:103F9C00FFF7F8FF08BD704790F84230222B68D12C
:103FAC008368B3F5805F4ED0826AB3F5805F04D02E
:103FBC00002B55D10369002B52D103685B68137039
:103FCC00836A01338362C38D9BB2013B9BB2C38571
:103FDC00002B50D100B583B00268D36823F02003C6
:103FEC00D3600268D36823F48073D360026853698A
:103FFC0023F001035361202380F8423000234363F4
:10400C00036B012B32D100230363026802F10C0312
:10401C0053E8003F23F010030C3242E80031002932
:10402C00F3D103681A6812F0100F06D00022019227
:10403C001A6801925B680193019B818DFFF7ABFFBE
:10404C00002003B000BD0269002AADD1826A03686A
:10405C005B68C3F308031380836A02338362B2E79D
:10406C0003685B6803F07F031370A9E7FCF7E6F8BD
:10407C00E6E70220704700207047000010B582B0C0
:10408C00044602681368D068516913F00F0F09D108
:10409C0013F0200F0CD010F0200F09D02046FFF7A2
:1040AC007BFF16E011F0010115D110F4907F12D1B5
:1040BC00216B012979D013F0800F03D010F0800F01
:1040CC0040F0138113F0400F03D010F0400F40F07C
:1040DC00108102B010BD13F0010F06D010F4807FD8
:1040EC0003D0626C42F00102626413F0040F04D03E
:1040FC0019B1626C42F00202626413F0020F04D038
:10410C0019B1626C42F00402626413F0080F07D01C
:10411C0010F0200F00D119B1626C42F008026264F9
:10412C00626C002AD5D013F0200F02D010F0200FB3
:10413C0029D123685B6903F04003626C12F0080F0D
:10414C0000D163B32046FFF797FD23685B6913F03A
:10415C00400F20D0226802F1140353E8003F23F0F3
:10416C004003143242E800310029F3D1E36B73B100
:10417C00624A5A63E06BFFF7B5FA0028A9D0E06BEE
:10418C00436B9847A5E72046FFF706FFD1E720468B
:10419C00FFF7F8FE9DE72046FFF7F4FE99E720466F
:1041AC00FFF7F0FE0023636493E713F0100F82D047
:1041BC0010F0100F3FF47FAF0023019313680193AD
:1041CC0053680193019B536913F0400F51D0E26B7C
:1041DC0013685B689BB2002B3FF47BAFA18D9942B7
:1041EC007FF677AFE3859369202B37D0226802F1F5
:1041FC000C0353E8003F23F480730C3242E8003187
:10420C000029F3D1226802F1140353E8003F23F094
:10421C000103143242E800310029F3D1226802F183
:10422C00140353E8003F23F04003143242E80031FA
:10423C000029F3D1202384F8423000232363226821
:10424C0002F10C0353E8003F23F010030C3242E858
:10425C0000310029F3D1E06BFFF721FA02236363ED
:10426C00A18DE38D9BB2C91A89B22046FFF793FE4C
:10427C002FE7A18DE38D9BB2C91A89B2E38D9BB256
:10428C00002B3FF426AF00293FF423AF226802F144
:10429C000C0353E8003F23F490730C3242E80030D7
:1042AC000028F3D1226802F1140353E8003F23F0F5
:1042BC000103143242E800300028F3D1202384F8A3
:1042CC00423000232363226802F10C0353E8003FC1
:1042DC0023F010030C3242E800300028F3D1022303
:1042EC0063632046FFF757FEF3E62046FFF7F2FC28
:1042FC00EFE62046FFF739FEEBE600BF933F0008E0
:10430C0081628285C28500234364222380F8423077
:10431C00036923B10268D36843F48073D3600268E5
:10432C00536943F0010353610268D36843F02003DF
:10433C00D3600020704708B590F84230202B08D18C
:10434C0049B10AB9012008BD00230363FFF7D8FF68
:10435C00F9E70220F7E70120F5E798B108B5034625
:10436C00D0F8B40210B10020C3F8B40209B1C3F8FC
:10437C00B012012183F89C121A701846FFF7D4FB77
:10438C00002008BD0220704719B1C0F8B4120020FB
:10439C0070470220704708B5FFF708FC002008BDE5
:1043AC0008B5D0F8B4322BB11B68984700B908BDDA
:1043BC000220FCE70220FAE708B5D0F8B4325B68BB
:1043CC009847002008BD38B5044600F52A752846E4
:1043DC0000F035F90123C4F89432B4F8AE32C4F8C5
:1043EC00983294F8A81201F01F03012B08D0022B6D
:1043FC000BD07BB92946204600F0D0FA002038BDFE
:10440C002946204600F0FEFAF8E72946204600F03F
:10441C0029FBF3E701F080012046FFF7E2FBEDE713
:10442C0038B504460D4691BB1346D0F89422032AA6
:10443C0003D0052A24D0084633E0D0F86011D0F818
:10444C00642191420DD9891AC0F860118A4206D9AB
:10445C008AB21946204600F037FC284621E092B279
:10446C00F7E7D0F8B4321B691BB190F89C22032AF1
:10447C0004D0204600F030FC284612E09847F8E7BC
:10448C000021C0F89412FFF7ACFB284609E0D0F8E5
:10449C00B4329B6933B190F89C22032A04D198471B
:1044AC00002038BD0220FCE70220FAE738B50446AC
:1044BC000D46002953D11346D0F89422022A0CD071
:1044CC00042A00D01AB980212046FFF78AFB94F801
:1044DC00A032012B3ED0284638BD026A416A8A427E
:1044EC001BD8C269B2FBF1F301FB13232BB9914228
:1044FC0003D8D0F898329A421CD3D4F8B432DB6883
:10450C001BB194F89C22032A21D080212046FFF76E
:10451C0068FB204600F0EBFBD9E7521A026292B21C
:10452C00194600F0BAFB00231A4619462046FFF73D
:10453C008FFBCCE70022114600F0AFFB0021C4F842
:10454C0098120B460A462046FFF782FBBFE720462F
:10455C009847DAE7002384F8A0322846BCE7D0F865
:10456C00B4325B6933B190F89C22032A04D198478A
:10457C000020B1E70220AFE70220ADE770B504469A
:10458C00402300221146FFF719FB0125C4F85851AE
:10459C004026C4F864613346002280212046FFF790
:1045AC000DFBA561666284F89C520023C4F894321A
:1045BC006360C4F8A432D4F8B8322BB1D4F8B43256
:1045CC005B68002120469847002070BD01740020D4
:1045DC00704790F89C3280F89D32042380F89C320E
:1045EC000020704790F89C32042B01D000207047BB
:1045FC0090F89D3280F89C32F8E708B590F89C3220
:10460C00032B01D0002008BDD0F8B432DB69002B9D
:10461C00F8D09847F6E70346002002E00130C0B21C
:10462C0001331A78002AF9D1704708B54B88012B51
:10463C0000D008BDC0F8A43200F04EFBF9E70B78AF
:10464C0003704B7843708B78CA7803EB022343805A
:10465C000B794A7903EB022383808B79CA7903EBBC
:10466C000223C380704710B504468021FFF7B9FAC6
:10467C0000212046FFF7B5FA10BD30B583B00546D2
:10468C000C460023ADF806304A88130A013B062B72
:10469C0000F2A480DFE803F004182CA2A286930099
:1046AC00D0F8B0321B680DF10601007C9847BDF8BC
:1046BC0006201AB1E388002B40F09480E388002B8D
:1046CC0000F09A8003B030BD037C43B9D0F8B4320B
:1046DC009B6A0DF10600984702234370E7E7D0F878
:1046EC00B432DB6A0DF10600984702234370DEE713
:1046FC00D2B2052A52D8DFE802F003101D2A374443
:10470C00D0F8B0325B6823B10DF10601007C9847FC
:10471C00CDE72146FFF7A7FFD4E7D0F8B0329B686E
:10472C0023B10DF10601007C9847C0E72146FFF745
:10473C009AFFC7E7D0F8B032DB6823B10DF1060160
:10474C00007C9847B3E72146FFF78DFFBAE7D0F816
:10475C00B0321B6923B10DF10601007C9847A6E726
:10476C002146FFF780FFADE7D0F8B0325B6923B18B
:10477C000DF10601007C984799E72146FFF773FF7E
:10478C00A0E7D0F8B0329B6923B10DF10601007C93
:10479C0098478CE72146FFF766FF93E72146FFF722
:1047AC0062FF8FE7037C33B9D0F8B4325B6B0DF149
:1047BC00060098477BE72146FFF755FF82E7037C0D
:1047CC0043B9D0F8B4321B6B0DF1060098470723A0
:1047DC0043706CE72146FFF746FF73E72146FFF76E
:1047EC0042FF6FE79A4228BF1A46ADF806200146F1
:1047FC00284600F045FA61E7284600F06DFA61E7BB
:10480C0038B504468B88F3B9CB88E3B94B887F2B3A
:10481C0019D803F07F0590F89C32032B0CD080F84C
:10482C009E522946FFF704FA204600F055FA35B19E
:10483C00022384F89C3209E0FFF715FF06E0012300
:10484C0084F89C3202E02046FFF70DFF38BD0000D3
:10485C0038B504460D468978284B197001290ED8B5
:10486C0090F89C32022B0ED0032B21D02946FFF757
:10487C00FAFE224B19782046FFF79EFD02E02946EE
:10488C00FFF7F1FE38BD81B14160032380F89C3203
:10489C00FFF786FD022803D0204600F01DFAF1E751
:1048AC0029462046FFF7DFFEECE700F015FAE9E7B2
:1048BC0089B1436899421DD0D9B2FFF77DFD0F4BEA
:1048CC00197861602046FFF76BFD02280DD0204659
:1048DC0000F002FAD6E7022380F89C324160FFF721
:1048EC006BFD204600F0F8F9CCE729462046FFF78F
:1048FC00BAFEC7E700F0F0F9C4E700BF08170020C4
:10490C0008B5CB88012B0AD190F89C32022B09D91F
:10491C00032B11D10122011D00F0B2F901E0FFF7C8
:10492C00A2FE08BD5BB23BB10146002341F8083F33
:10493C00012200F0A5F9F4E7FFF795FEF1E708B5C1
:10494C0090F89C32013B022B12D8CB88022B0CD155
:10495C000123C360D0F8A4320BB10323C36002223D
:10496C0000F10C0100F08CF908BDFFF77CFEFBE7B1
:10497C00FFF779FEF8E708B590F89C32013B022B63
:10498C0009D84B88012B00D008BD0023C0F8A432F5
:10499C0000F0A2F9F8E7FFF766FEF5E708B50B782B
:1049AC0003F06003202B05D0402B03D043B1FFF75D
:1049BC005AFE03E0D0F8B4329B689847002008BD3B
:1049CC004B78092B1BD8DFE803F011171A141A08BF
:1049DC00051A0E0BFFF751FEF0E7FFF711FFEDE79D
:1049EC00FFF736FFEAE7FFF78BFFE7E7FFF7A7FFD5
:1049FC00E4E7FFF71AFEE1E7FFF7BDFFDEE7FFF79D
:104A0C0032FEDBE738B505460C460B7803F0600345
:104A1C00202B06D0402B04D01BB1FFF724FE002026
:104A2C0038BD95F89C32013B022B16D82379012B0B
:104A3C000ED8D5F8B4329B68214628469847E388AF
:104A4C00002BECD10028EAD1284600F045F9E6E726
:104A5C0021462846FFF707FEE1E721462846FFF7E7
:104A6C0002FEDCE770B505468B880C7804F0600418
:104A7C00202C07D0DAB2402C04D05CB1FFF7F3FD48
:104A8C00002405E0D5F8B4329B68284698470024EA
:104A9C00204670BD202C09D04E78012E33D0032E29
:104AAC000AD0002E55D0FFF7DEFDF1E7D0F8B43276
:104ABC009B6898470446EBE790F89C32022B04D095
:104ACC00032B11D0FFF7CFFDE2E70AB1802A03D107
:104ADC002846FFF7C8FDDBE71146FFF782F8802177
:104AEC002846FFF77EF8D3E74B8823B91AB1802A02
:104AFC0001D0CB881BB1284600F0EEF8C8E7114670
:104B0C00FFF76FF8F7E790F89C32022B04D0032BD9
:104B1C0011D0FFF7A8FDBBE70AB1802A03D12846C4
:104B2C00FFF7A1FDB4E71146FFF75BF8802128469B
:104B3C00FFF757F8ACE74B88002BA9D112F07F0F89
:104B4C0003D1284600F0C8F8A2E71146FFF751F848
:104B5C00F7E790F89C02022806D0032829D02846B3
:104B6C00FFF781FD344693E70AB1802A13D113F085
:104B7C00800F15D102F07F0202EB8202910001F549
:104B8C00A8712944043100230B600222284600F04E
:104B9C0077F834467CE72846FFF765FD344677E71F
:104BAC0002F07F0202EB82029100103129440431A1
:104BBC00E9E75BB2002B1FDB02F00F0000EB80007B
:104BCC0005EB8000D0F8580120B3002B27DB02F056
:104BDC007F0303EB83039C0004F5A8742C4404347A
:104BEC000AB1802A24D100232360022221462846C0
:104BFC0000F046F834464BE702F00F0000EB800063
:104C0C0005EB800080690028DFD12846FFF72BFDDB
:104C1C0034463DE72846FFF726FD344638E702F0D8
:104C2C007F0303EB83039C0010342C440434D7E73C
:104C3C0011462846FEF7E5FF10B101232360D4E7A7
:104C4C0000232360D1E7D0B170B50D46164604465B
:104C5C00FFF7E1FC431C5B009BB233802B700323FA
:104C6C006B70022307E001345A1CD2B2E8540233B1
:104C7C00DBB20021A95420780028F4D170BD704714
:104C8C0008B513460222C0F89422C36103620A4697
:104C9C000021FEF7D5FF002008BD08B513460A46D3
:104CAC000021FEF7CDFF002008BD08B513460322F6
:104CBC00C0F89422C0F85C31C0F860310A4600217B
:104CCC00FEF7C6FF002008BD08B513460A460021B2
:104CDC00FEF7BEFF002008BD08B50423C0F89432CF
:104CEC0000231A461946FEF7ABFF002008BD08B595
:104CFC000523C0F8943200231A461946FEF7A8FF84
:104D0C00002008BD10B5D0F8B842D0F8BC325BB169
:104D1C0094F80002FF2807D09B6894F801222146E2
:104D2C009847FF2384F80032002010BD43230380F2
:104D3C0000487047E0000020432303800048704780
:104D4C002401002043230380004870479C0000206E
:104D5C000A23038000487047A001002038B50446A0
:104D6C00D0F8B852FEF77CFFC5F80C02D4F8B83274
:104D7C004BB1D4F8BC32DB6805F50371D5F80402ED
:104D8C009847002038BD0220FCE710B5D0F8B822B7
:104D9C00D0F8C042F2B101EB810300EB8303DB6975
:104DAC004BB101EB810C04EBCC04A46BB3FBF4FC16
:104DBC0004FB1C3323B10023C2F81432002010BDB5
:104DCC0001EB810300EB83030022DA611346FEF74B
:104DDC0037FFF3E70220F2E7F0B583B006460C4646
:104DEC00D0F8B87200238DF80730ADF804300B788A
:104DFC0013F0600527D0202D53D1CA88DAB113F0F7
:104E0C00800F0CD0D0F8BC329B683946607898473C
:104E1C00E28839463046FFF733FF002544E04B78F3
:104E2C0087F800328B7987F80132CA883946FFF748
:104E3C003CFF002538E0D0F8BC329B680022487853
:104E4C009847002530E04F780A2F10D00B2F1CD03C
:104E5C001FBB90F89C32032B03D0FFF704FC0225F8
:104E6C0022E0022201A9FFF70BFF3D461CE090F85F
:104E7C009C32032B03D0FFF7F6FB022514E0012232
:104E8C000DF10701FFF7FCFE0EE090F89C32032BAE
:104E9C000AD0FFF7E8FB022506E0FFF7E4FB02254A
:104EAC0002E0FFF7E0FB0225284603B0F0BD38B561
:104EBC0004468121FEF78DFE0025E5620121204686
:104ECC00FEF787FEC4F86C5182212046FEF781FE66
:104EDC002564D4F8B8324BB1D4F8BC325B6898472F
:104EEC00D4F8B802FEF7C6FEC4F8B852002038BD9C
:104EFC0070B50446037CABBB4FF4007302228121D6
:104F0C00FEF75CFE0125E5624FF400730222294690
:104F1C002046FEF753FEC4F86C510823032282216D
:104F2C002046FEF74BFE012323644FF40770FEF777
:104F3C009DFE0546C4F8B80268B3D4F8BC321B68B1
:104F4C0098470023C5F81432C5F81832267CCEB920
:104F5C004FF40073D5F8042201212046FEF778FEA9
:104F6C00304670BD402302228121FEF727FE012529
:104F7C00E5624023022229462046FEF71FFEC4F8B4
:104F8C006C51CAE74023D5F8042201212046FEF7D4
:104F9C005FFE0026E4E70126E2E719B1C0F8BC1277
:104FAC000020704702207047D0F8B832C3F80812BE
:104FBC00C3F8102200207047D0F8B832C3F804129E
:104FCC0000207047D0F8B82292B108B5037C43B9E1
:104FDC004FF40073D2F804220121FEF739FE0020B1
:104FEC0008BD4023D2F804220121FEF731FEF6E77A
:104FFC000220704710B503460C4A0D490D48006855
:10500C0040B10C4800680344521A934206D8094A2E
:10501C00136010BD0748084C0460F2E700F0A8FAD2
:10502C000C2303604FF0FF30F3E700BF005000206B
:10503C00000400000C1700206018002070B50C460E
:10504C001646002506E0AFF30080214601F8010B5F
:10505C0001350C46B542F6DB304670BD4FF0FF30E3
:10506C0070474FF400534B6000207047012070478D
:10507C0000207047FEF7F8FB0B480C490C4A002344
:10508C0002E0D458C4500433C4188C42F9D3094AF2
:10509C00094C002301E013600432A242FBD300F060
:1050AC006DFAFBF78BFA7047000000200802002015
:1050BC0090610008080200205C180020FEE7000048
:1050CC00002310B50446C0E90033C0E90433836003
:1050DC0081814366C2818361194608225C3000F0ED
:1050EC00F9F90D4B246263620C4BA3620C4BE36227
:1050FC000C4B23630C4B9C4206D003F16802944288
:10510C0002D0D0339C4205D104F15800BDE81040C8
:10511C0000F058BA10BD00BF3553000857530008B3
:10512C008F530008B553000810170020024A03499A
:10513C00034800F06BB800BFAC010020695E0008AA
:10514C00BC01002041680C4B10B59942044601D0BB
:10515C0000F084FEA168094B994202D0204600F071
:10516C007DFEE168064B994204D02046BDE8104014
:10517C0000F074BE10BD00BF10170020781700207F
:10518C00E01700200C4B0D4A10B504211A600C4896
:10519C000022FFF795FF0A4B01221C46092103F15F
:1051AC006800FFF78DFF04F1D0000222BDE810402B
:1051BC001221FFF785BF00BF4818002039510008A5
:1051CC0010170020014800F0FEB900BF5118002054
:1051DC00014800F0F9B900BF5118002010B5044681
:1051EC00FFF7F0FF236A1BB1BDE81040FFF7F0BFDB
:1051FC00044B2362044B1B68002BF5D1FFF7C2FF55
:10520C00F2E700BF51510008481800202DE9F8437F
:10521C000746884614460026D4E90195B9F10109E0
:10522C0005D52468002CF7D13046BDE8F883AB894E
:10523C00012B07D9B5F90E30013303D02946384676
:10524C00C04706436835E9E70FB407B5064904AB18
:10525C00086853F8042B8168019300F0D5FA03B069
:10526C005DF804EB04B07047B8010020036A70B518
:10527C0005460E4684680BB9FFF7B0FF636EDB077B
:10528C0005D4A389980502D4A06D00F09CF9A389DC
:10529C00190702D52369002B35D12146284600F089
:1052AC00C5F880B34FF0FF35636EDA0705D4A389D8
:1052BC009B0502D4A06D00F087F9284670BD002B29
:1052CC0004DAA269934217DB0A2915D023685A1C09
:1052DC0022601970A36816F8011F013BA360002916
:1052EC00EDD1002B11DA22460A21284600F060F895
:1052FC000130D7D00A25D7E72246284600F058F8C7
:10530C000130E7D1CEE7013EE4E723685A1C226066
:10531C000A221A70EEE70000024B01461868FFF7EC
:10532C00A5BF00BFB801002010B50C46B1F90E1096
:10533C0000F0FAF80028ABBF636DA3891B1823F4A7
:10534C008053ACBF6365A38110BD2DE9F0411F46AE
:10535C008B890546DB050C46164605D50223002233
:10536C00B1F90E1000F0CEF8A389324623F4805325
:10537C00A38128463B46B4F90E10BDE8F04100F07D
:10538C00E5B810B50C46B1F90E1000F0BBF8B4F945
:10539C000C30421C0BBF23F4805343F48053A38185
:1053AC00A38118BF606510BDB1F90E1000F09AB85A
:1053BC00F8B50E461446054618B1036A0BB9FFF74B
:1053CC000DFFA369A360A3891A0701D5236943B90B
:1053DC002146284600F02AF818B14FF0FF3738461E
:1053EC00F8BD23682269F6B2981A6369374683427E
:1053FC0005DC2146284600F031FD0028EDD1A368DC
:10540C00013BA36023685A1C22601E706269431C16
:10541C009A4204D0A389DB07E1D50A2EDFD12146BD
:10542C00284600F01BFD0028D9D0D6E738B5284B0C
:10543C00054618680C4618B1036A0BB9FFF7CEFE87
:10544C00B4F90C301A0721D4D80607D409222A60E3
:10545C0043F040034FF0FF30A38130E0590712D5E1
:10546C00616B41B104F14403994202D0284600F02B
:10547C00ADF8002363630022B4F90C30626022693A
:10548C0023F02403226043F00803A38122693AB974
:10549C009A0501D5180603D52146284600F02AFDA9
:1054AC00B4F90C3013F001020AD00022A260626938
:1054BC005242A261226942B913F08000C8D138BDB2
:1054CC00990758BF6269A260F4E70020F7E700BFB4
:1054DC00B801002003460244934200D1704703F800
:1054EC00011BF9E738B50023054D044608462B602F
:1054FC00FFF7B4FD431C02D12B6803B1236038BD08
:10550C004C18002038B50446084611460022054DBB
:10551C002A601A46FFF7ACFD431C02D12B6803B17D
:10552C00236038BD4C18002038B504460846114697
:10553C000022054D2A601A46FFF780FD431C02D15C
:10554C002B6803B1236038BD4C18002038B50446D5
:10555C00084611460022054D2A601A46FAF762FEEB
:10556C00431C02D12B6803B1236038BD4C180020BA
:10557C00014B1868704700BFB801002070B50026B9
:10558C000C4D0D4B5B1B9C10A64209D1002600F064
:10559C002BFD0A4D0A4B5B1B9C10A64205D170BD1E
:1055AC0055F8043B98470136EEE755F8043B98470D
:1055BC000136F2E7886100088861000888610008FC
:1055CC008C610008704770477047000038B505467D
:1055DC00002940D051F8043C0C1F002BB8BFE41834
:1055EC0000F0DEF81C4A136833B963601460284677
:1055FC00BDE8384000F0DAB8A34208D92068211879
:10560C008B4201BF19685B6809182160EDE71A46E7
:10561C005B680BB1A342FAD911685018A0420BD1A8
:10562C0020680144501883421160E0D118685B680F
:10563C00084410605360DAE702D90C232B60D6E7DC
:10564C00206821188B4201BF19685B68091821601A
:10565C0063605460CBE738BD5818002070B50F4E0E
:10566C000C463168054611B900F0A0FC30602146AB
:10567C00284600F09BFC431C03D14FF0FF3420461E
:10568C0070BDC41C24F00304A042F8D0211A284693
:10569C0000F08CFC0130F2D1EFE700BF5418002071
:1056AC002DE9F843CD1C25F0030508350C2D38BF2A
:1056BC000C25002D064601DBA94204D90C233360CE
:1056CC000020BDE8F883DFF8D48000F069F8D8F842
:1056DC0000301C4644BB29463046FFF7BFFF431C35
:1056EC00044658D1D8F800402746002F43D1002C4F
:1056FC004BD023683946304604EB030900F056FCC6
:10570C00814542D1216830466D1A2946FFF7A6FF24
:10571C0001303AD023682B442360D8F800305A6803
:10572C0062BBC8F800700FE02268521B20D40B2A11
:10573C0017D96119A342256018BF5960636808BF67
:10574C00C8F8001062514B60304600F02FF804F19D
:10575C000B00231D20F00700C21A1CBF1B1AA350FC
:10576C00AFE76268A3420CBFC8F800205A60EBE7B1
:10577C0023466468AEE73C467F68B6E71A465B682A
:10578C00A342FBD100235360DEE70C233046336089
:10579C0000F00CF894E70560D6E700BF581800201D
:1057AC000148FFF710BF00BF501800200148FFF759
:1057BC000BBF00BF50180020936810B4013B002BA6
:1057CC00936007DA9469A34201DB0A2902D110BC69
:1057DC00FFF7EEBD1368581C10601970084610BC1A
:1057EC007047F8B506460F461446D518AC4201D1A1
:1057FC00002007E03A46304614F8011BFFF7DCFFA7
:10580C00431CF3D1F8BD00002DE9F0470D461446BA
:10581C001F4606469CB018B1036A0BB9FFF7DEFCB5
:10582C006B6ED90705D4AB899A0502D4A86DFFF726
:10583C00CAFEAB891B0701D52B699BB9294630469B
:10584C00FFF7F4FD70B16B6EDC0704D54FF0FF3041
:10585C001CB0BDE8F087AB899805F7D4A86DFFF7AD
:10586C00B3FEF3E70023099320238DF8293030236E
:10587C004FF001080397694F8DF82A30234699465B
:10588C0013F8012B0AB1252AF9D1B9EB040A0BD074
:10589C005346224629463046FFF7A3FF013000F05D
:1058AC00A480099A5244099299F80030002B00F018
:1058BC009C8000234FF0FF32CDE9052309F101094B
:1058CC00049307938DF853301A934C46052214F821
:1058DC00011B524800F07AFB049BD0B9D90644BF97
:1058EC0020228DF853201A0744BF2B228DF8532009
:1058FC0099F800202A2A13D04C4600204FF00A0CAD
:10590C00079A214611F8013B303B092B49D968B95C
:10591C0013E0C01B08FA00F01843A1460490D4E72A
:10592C00039A111D12680391002A01DB079204E00F
:10593C00524243F002030792049323782E2B0AD190
:10594C0063782A2B32D1039B02341A1D1B680392F5
:10595C0043EAE3730593DFF8C890032248462178A5
:10596C0000F034FB38B14022049BA0EB09008240CC
:10597C0013430134049314F8011B062229488DF8B3
:10598C00281000F023FB00283ED0274818BB039BAF
:10599C00073323F0070308330393099B034409934C
:1059AC006CE70C4601200CFB0232AAE700234FF0F7
:1059BC000A0C194601340593204610F8012B303A95
:1059CC00092A03D9002BC6D00591C4E7044601234C
:1059DC000CFB0121F0E703AB00932A463046134B36
:1059EC0004A9AFF30080431CD7D16B6ED90705D443
:1059FC00AB899A0502D4A86DFFF7E6FDAB895B066F
:105A0C003FF524AF099823E703AB00932A463046B1
:105A1C00064B04A900F07EF8E5E700BF4C610008D6
:105A2C00526100085661000800000000EF570008A2
:105A3C002DE9F047164698468A680B69074693424B
:105A4C00B8BF1346336091F843200C46DDF8209024
:105A5C000AB1013333602368990642BF33680233BD
:105A6C003360256815F0060506D104F1190AE368C0
:105A7C0032689B1AAB422BDC94F843302268003B13
:105A8C0018BF0123920630D44146384604F1430234
:105A9C00C847013023D02368226903F00603042B86
:105AAC0014BF002533684FF0000608BFE56804F109
:105ABC001A0408BFED1A54F8123C08BF25EAE57524
:105ACC009342C4BF9B1AED18B5421AD1002008E0CE
