:020000040800F2
:1000000000500020494700088D0400088F040008B4
:100010009104000893040008950400080000000003
:10002000000000000000000000000000970400082D
:1000300099040008000000009B0400089D040008CB
:100040009147000891470008914700089147000830
:100050009147000891470008914700089147000820
:100060009147000891470008914700089147000810
:100070009147000891470008914700089147000800
:1000800091470008914700089147000891470008F0
:10009000A50400089147000891470008914700080F
:1000A00091470008914700089147000891470008D0
:1000B000B5040008914700089147000891470008DF
:1000C00091470008914700089147000891470008B0
:1000D00091470008C50400089147000891470008AF
:1000E0009147000891470008914700080000000070
:1000F0000000000000000000000000000000000000
:0C01000000000000000000005FF808F1A3
:10010C0010B5054C237833B9044B13B10448AFF345
:10011C0000800123237010BD3C0000200000000073
:10012C00EC47000808B5034B1BB103490348AFF378
:10013C00008008BD0000000040000020EC470008D3
:10014C00034613F8012B002AFBD1181A013870470B
:10015C002DE9F04389B004AD002404940594069471
:10016C0007942F4B9A6942F010029A619A6902F037
:10017C0010020092009A9A6942F020029A619A69E0
:10018C0002F020020192019A9A6942F004029A61EB
:10019C009A6902F004020292029A9A6942F00802E9
:1001AC009A619B6903F008030393039BDFF8749037
:1001BC0022460321484603F03AF81B4F22464FF4DF
:1001CC008071384603F033F84FF4005304930594D0
:1001DC00012606962946154802F018FF1E230493A3
:1001EC00059406962946384602F010FF0323049323
:1001FC00059606944FF00208CDF81C802946484617
:10020C0002F004FF4FF48073049305960694CDF826
:10021C001C802946384602F0F9FE09B0BDE8F0838F
:10022C0000100240000C0140000801400010014089
:10023C0010B50446FFF784FF4FF0FF3382B221461E
:10024C00014803F09BFA10BD5800002072B6FEE77F
:10025C0008B50A480A4B03604FF416534360002359
:10026C008360C36003610C2242618361C36103F04C
:10027C0055FA00B908BDFFF7E9FF00BF5800002090
:10028C000038014000B58FB000230A930B930C93F8
:10029C000D9308930993019302930393049305938D
:1002AC00069307931D484FF08042026041F61F42AF
:1002BC00426083606322C2600361836100F084FB4F
:1002CC0010BB4FF480530A930AA9144800F03DFC6C
:1002DC00E0B9124800F0A4FBD0B9002308930993AD
:1002EC0008A90E4800F0B0FCA0B9002201920292BD
:1002FC000392059201A9094800F0ECFB60B907488C
:10030C0000F052F90FB000BDFFF7A0FFFFF79EFF02
:10031C00FFF79CFFFFF79AFFFFF798FFA000002064
:10032C0008B50A480A4B03600A4B436000238360FC
:10033C00C3604FF48042026143618361C361036215
:10034C0004F01EF900B908BDFFF780FFE80000209B
:10035C0000540040A086010010B594B00AAC2822CD
:10036C000021204604F00FFA00230593069307930F
:10037C0008930993019302930393049301220A9225
:10038C004FF480330B930E920222119212934FF47E
:10039C00E0131393204602F09FFAB8B90F2305938C
:1003AC0002210691002307934FF48062089209936F
:1003BC0005A802F0C3FC58B9102301930023049341
:1003CC0001A802F097FD28B914B010BDFFF73EFF4D
:1003DC00FFF73CFFFFF73AFF08B502F02FFAFFF7E3
:1003EC00BBFFFFF7B5FEFFF733FFFFF74BFFFFF740
:1003FC0097FF4FF4FA7002F045FA04F091F81848A0
:10040C00FFF716FF16E004F0A3F8D8B904F0A8F82B
:10041C00E0B904F0ADF8E8B90221124802F000FF8F
:10042C00E0B91148FFF704FFC82002F02BFA0A20AC
:10043C0002F028FA04F084F80028E4D00B48FFF707
:10044C00F7FEE0E70A48FFF7F3FEDFE70948FFF79E
:10045C00EFFEDEE70848FFF7EBFEDDE70748E1E7D4
:10046C000C48000800080140084800082048000813
:10047C002C4800083448000840480008044800088C
:10048C00FEE7FEE7FEE7FEE7FEE7704770477047C2
:10049C0008B502F0E5F908BD08B5024801F05FF9AE
:1004AC0008BD00BF4001002008B5024800F095F9D6
:1004BC0008BD00BFA000002008B5024803F046FAB2
:1004CC0008BD00BF5800002082B00E4B9A6942F064
:1004DC0001029A619A6902F001020092009ADA69AB
:1004EC0042F08052DA61DB6903F080530193019B87
:1004FC00054A536823F0E06343F00073536002B085
:10050C00704700BF001002400000014010B586B0DB
:10051C00002302930393049305930268114B9A42B0
:10052C0001D006B010BD104CA36943F00803A361C1
:10053C00A36903F008030093009BC02302931223CA
:10054C0003930323059302A9084802F05FFDE369B6
:10055C0043F40013E361E36903F400130193019B7B
:10056C00DFE700BF0054004000100240000C0140C7
:10057C000368B3F1804F00D0704700B583B003F52A
:10058C000433DA6942F00102DA61DB6903F001033A
:10059C000193019B002211461C2002F001FF1C203C
:1005AC0002F00EFF03B000BD00B587B0002302932C
:1005BC000393049305930368B3F1804F01D007B004
:1005CC0000BD03F504339A6942F004029A619B69F9
:1005DC0003F004030193019B012302930223039371
:1005EC00059302A9014802F011FDE8E7000801405B
:1005FC0070B586B0002302930393049305930268AD
:10060C001C4B9A4201D006B070BD03F558439A6951
:10061C0042F480429A619A6902F480420092009AF4
:10062C009A6942F004029A619B6903F004030193F6
:10063C00019B4FF40073029302230393032305934E
:10064C0002AE0D4D3146284602F0E0FC4FF48063BB
:10065C0002930024039404943146284602F0D6FCFD
:10066C0022462146252002F09BFE252002F0A8FE02
:10067C00C9E700BF003801400008014030B4026AED
:10068C00036A23F0010303624568836923F0730353
:10069C000C681C4322F002028B6813430B4A9042F5
:1006AC0006D0456084614A684263036230BC70477F
:1006BC0023F00803CA681A4322F0040325F440759A
:1006CC004A692A438D691543EBE700BF002C0140B2
:1006DC0030B4036A026A22F4807202624468C2690E
:1006EC0022F073020D68154323F400738A6843EA01
:1006FC0002230D4A904206D04460C5614A68C26329
:10070C00036230BC704723F40063CA6843EA0223D7
:10071C0023F4806324F440544A6944EA02148A693D
:10072C0044EA0214E8E700BF002C014030B4036A2D
:10073C00026A22F4805202624468C26922F4E642E0
:10074C000D6842EA052223F400538D6843EA053311
:10075C00074DA84206D04460C2614A680264036235
:10076C0030BC704724F480444D6944EA8514F2E7A8
:10077C00002C014010B4036A046A24F001040462E2
:10078C00846924F0F00C4CEA021223F00A030B43A8
:10079C008261036210BC704710B4036A046A24F0CF
:1007AC0010040462846924F4704C4CEA023223F085
:1007BC00A00343EA01138261036210BC7047836893
:1007CC0023F070030B4343F00703836070477047BB
:1007DC007047704770477047704710B50446036800
:1007EC001A6912F0020F11D0DA6812F0020F0DD054
:1007FC006FF002021A610123037703689B6913F0FF
:10080C00030F70D0FFF7E6FF0023237723681A69E4
:10081C0012F0040F12D0DA6812F0040F0ED06FF041
:10082C0004021A610223237723689B6913F4407F27
:10083C005FD02046FFF7CEFF0023237723681A6989
:10084C0012F0080F12D0DA6812F0080F0ED06FF009
:10085C0008021A61042323772368DB6913F0030F62
:10086C004ED02046FFF7B6FF0023237723681A6982
:10087C0012F0100F12D0DA6812F0100F0ED06FF0C9
:10088C0010021A61082323772368DB6913F4407F75
:10089C003DD02046FFF79EFF0023237723681A697B
:1008AC0012F0010F03D0DA6812F0010F36D1236871
:1008BC001A6912F0800F03D0DA6812F0800F34D16D
:1008CC0023681A6912F0400F03D0DA6812F0400F57
:1008DC0032D123681A6912F0200F03D0DA6812F0B3
:1008EC00200F30D110BDFFF774FF2046FFF773FFC8
:1008FC008AE72046FFF76DFF2046FFF76CFF9BE76A
:10090C002046FFF766FF2046FFF765FFACE7204661
:10091C00FFF75FFF2046FFF75EFFBDE76FF00102B8
:10092C001A612046FFF754FFC1E76FF080021A618D
:10093C00204600F0C0F9C3E76FF040021A61204670
:10094C00FFF74AFFC5E76FF020021A61204600F05E
:10095C00B1F9C7E703681B4A90420AD0B0F1804F47
:10096C0007D0A2F59432904203D002F580629042F7
:10097C0003D123F070034A681343124A90420AD001
:10098C00B0F1804F07D0A2F59432904203D002F51B
:10099C008062904203D123F44073CA68134323F05E
:1009AC0080034A69134303608B68C3620B688362DC
:1009BC00044B984202D00123436170470B690363D7
:1009CC00F9E700BF002C014040B310B5044690F885
:1009DC003D30F3B1022384F83D30214651F8040B2D
:1009EC00FFF7B8FF012384F8463084F83E3084F8D2
:1009FC003F3084F8403084F8413084F8423084F839
:100A0C00433084F8443084F8453084F83D3000207D
:100A1C0010BD80F83C30FFF7ABFDDBE701207047E1
:100A2C0040B310B5044690F83D30F3B1022384F87E
:100A3C003D30214651F8040BFFF78CFF012384F85D
:100A4C00463084F83E3084F83F3084F8403084F8E7
:100A5C00413084F8423084F8433084F8443084F8D0
:100A6C00453084F83D30002010BD80F83C30FFF755
:100A7C00AEFEDBE70120704730B4036A026A22F055
:100A8C00100202624468826922F4E6420D6842EA6E
:100A9C00052223F020038D6843EA05130C4DA84270
:100AAC0006D0446082614A688263036230BC70473E
:100ABC0023F08003CD6843EA051323F0400324F4AC
:100ACC0040644D6944EA85048D6944EA8504E8E78D
:100ADC00002C014090F83C30012B28D010B5044676
:100AEC00012380F83C300C2A1CD8DFE802F0071BED
:100AFC001B1B0C1B1B1B111B1B1B16000068FFF781
:100B0C00BDFD00200FE00068FFF7B6FF00200AE0F3
:100B1C000068FFF7DDFD002005E00068FFF706FE2A
:100B2C00002000E00120002384F83C3010BD02209E
:100B3C00704710B4846824F47F4C42EA03220A43C1
:100B4C0042EA0C02826010BC704790F83C30012BDA
:100B5C0078D010B50446012380F83C30022380F88D
:100B6C003D300268936823F47F4323F0770393604E
:100B7C000B68602B4CD023D8402B54D011D8202B91
:100B8C0003D00AD80BB1102B05D119462068FFF7FA
:100B9C0016FE002028E0012026E0302BF5D00120A5
:100BAC0022E0502B0AD1CA6849680068FFF7E2FDC1
:100BBC0050212068FFF703FE002015E0012013E010
:100BCC00B3F5805F3AD0B3F5005F14D0702B37D1FA
:100BDC00CB684A6889680068FFF7ABFF22689368A6
:100BEC0043F0770393600020012384F83D30002309
:100BFC0084F83C3010BDCB684A6889680068FFF700
:100C0C0098FF2268936843F4804393600020EBE7DD
:100C1C00CA6849680068FFF7BFFD60212068FFF7CC
:100C2C00CEFD0020E0E7CA6849680068FFF7A2FD26
:100C3C0040212068FFF7C3FD0020D5E70020D3E753
:100C4C000120D1E70220704790F83C20012A2CD0DB
:100C5C0010B40346012280F83C20022280F83D208B
:100C6C0002685068946820F0700C086840EA0C0028
:100C7C0050601A680E4882420AD0B2F1804F07D0F9
:100C8C00A0F59430824203D000F58060824204D1FA
:100C9C0024F08004496821439160012283F83D20AF
:100CAC00002083F83C0010BC70470220704700BF46
:100CBC00002C01407047704738B512F4804F44D077
:100CCC000468B4F850309BB291F800C003EBCC032D
:100CDC00023304EB4304B4F80044C4F309048B69F5
:100CEC00A34228D31B1B8B618B697BB9056835F834
:100CFC002C309BB223F4804323F0700383F4005315
:100D0C0043F4004343F0800325F82C3012F0400FDD
:100D1C000ED002680D7832F825309BB223F4E043F4
:100D2C0023F0700343F4004343F0C00322F8253052
:100D3C0024B9204638BD00238B61D5E723460A89A8
:100D4C004969006801F03CFDF3E70468B4F85030E1
:100D5C009BB291F800C003EBCC03063304EB4304C5
:100D6C00B4F80044C4F309048B69A3422FD31B1BB2
:100D7C008B618B697BB9056835F82C309BB223F4F9
:100D8C00804323F0700383F4005343F4004343F097
:100D9C00800325F82C3012F0400F0FD1026891F827
:100DAC0000C032F82C309BB223F4E04323F07003E4
:100DBC0043F4004343F0C00322F82C30002CB8D08D
:100DCC0023464A894969006801F0FAFCB1E700231F
:100DDC008B61CEE770B505460C46164612F0400FF7
:100DEC0000F00E810268B2F850309BB2097803EB28
:100DFC00C103023302EB4302B2F80024C2F309022E
:100E0C00A36993424ED99B1AA361A369002B66D1A7
:100E1C006378002B49D12B68B3F8502092B213445D
:100E2C0003EB0113B3F80424C2F30902A3F804245E
:100E3C00B3F804246FEA42426FEA524292B2A3F82A
:100E4C0004242B686278002A3CD1B3F8502092B26B
:100E5C001344227803EB0213B3F80C24C2F30902F7
:100E6C00A3F80C24B3F80C246FEA42426FEA524206
:100E7C0092B2A3F80C242178284602F0E2FA16F478
:100E8C00804F41D02A68217832F821309BB223F46C
:100E9C00E04323F0700343F4404343F0800322F813
:100EAC00213031E00023A361AFE7012BC9D12B68BE
:100EBC00B3F8502092B2134403EB01130022A3F8B1
:100ECC000424BEE7012AD6D1B3F8502092B21344C1
:100EDC00227803EB02130022A3F80C24CBE716F4C0
:100EEC00804F0DD0286830F821309BB223F4E043BA
:100EFC0023F0700343F4404343F0800320F8213087
:100F0C0094F82430012B12D02A68217832F8213041
:100F1C009BB223F4E04323F0400383F0300343F40B
:100F2C00004343F0800322F82130002070BD636938
:100F3C0013446361E3691344E361216A23699942B1
:100F4C0024D3C91A21626278002A44D12A68B2F8E3
:100F5C00501089B20A44217802EB0112B2F8041441
:100F6C00C1F30901A2F804143E2B1BD9580913F044
:100F7C001F0F00D10138B2F8041489B2800280B27C
:100F8C00014341F40041A2F8041426E021B90023E6
:100F9C0084F824301346D6E7002384F824302362E7
:100FAC000B46D0E74BB9B2F804146FEA41416FEA33
:100FBC00514189B2A2F804140FE0590813F0010F43
:100FCC0000D00131B2F8040480B2890289B2014325
:100FDC00A2F8041401E0012A06D09BB222896169AF
:100FEC00286800F0EFFF8FE72A68B2F8501089B23A
:100FFC000A44217802EB011299B2A2F80414ECE72E
:10100C000268B2F850309BB2097803EBC103063387
:10101C0002EB4302B2F80024C2F30902A369934223
:10102C004FD39B1AA361A369002B67D16378002B64
:10103C004AD12B68B3F8502092B2134403EB01133E
:10104C00B3F80424C2F30902A3F80424B3F804246B
:10105C006FEA42426FEA524292B2A3F804242B6820
:10106C006278002A3DD1B3F8502092B21344227812
:10107C0003EB0213B3F80C24C2F30902A3F80C24FB
:10108C00B3F80C246FEA42426FEA524292B2A3F8D0
:10109C000C242178284602F0D4F916F4804F7FF402
:1010AC0033AF2A68217832F821309BB223F4E04325
:1010BC0023F0700343F4404343F0800322F82130C3
:1010CC0022E70023A361AEE7012BC8D12B68B3F84C
:1010DC00502092B2134403EB01130022A3F8042412
:1010EC00BDE7012AD5D1B3F8502092B2134422782F
:1010FC0003EB02130022A3F80C24CAE716F4804F6A
:10110C000DD1286830F821309BB223F4E04323F052
:10111C00700343F4404343F0800320F8213094F8EB
:10112C002430012B7FF4F0AE636913446361E369EF
:10113C001344E361216A2369994224D3C91A2162B9
:10114C002A686178002943D1B2F8501089B20A4458
:10115C00217802EB0112B2F80C14C1F30901A2F8C8
:10116C000C143E2B1BD9580913F01F0F00D101385A
:10117C00B2F80C1489B2800280B2014341F40041F0
:10118C00A2F80C1426E021B9002384F8243013466D
:10119C00D6E70023236284F824300B46D0E74BB902
:1011AC00B2F80C146FEA41416FEA514189B2A2F8CE
:1011BC000C140FE0590813F0010F00D00131B2F8F4
:1011CC000C0480B2890289B20143A2F80C1401E02C
:1011DC00012906D09BB262896169286800F0F2FE91
:1011EC0092E6B2F8501089B20A44217802EB01124F
:1011FC0099B2A2F80C14EDE72DE9F04105462868E8
:10120C00B0F8443013F4004F00F09282B0F8444030
:10121C00A3B214F00F0440F0E28013F0100F6BD067
:10122C0003889AB213F4006F40F09D8012F4004FC3
:10123C00E5D0038823F070031B051B0D43F08003DE
:10124C0003802868B0F850309BB295F8682103EB06
:10125C00C203063300EB4303B3F80034C3F30903B2
:10126C00C5F884318BB1D5F87C1171B1B5F86E210C
:10127C0001F0A6FAD5F87C31D5F884211344C5F8D1
:10128C007C310021284602F0D0F82A68138899B2E4
:10129C0013F4006FB3D101F44051B1F5405FAED0FF
:1012AC00B2F850309BB21A44B2F80C34C3F30903B1
:1012BC00A2F80C34D5F878313E2B77D9590913F0B4
:1012CC001F0F00D10139B2F80C349BB2890289B2DC
:1012DC000B4343F40043A2F80C342A6813889BB2E6
:1012EC0023F4804323F0700383F4405343F400430E
:1012FC0043F08003138082E703889BB223F4E1431D
:10130C0023F070036FEA43436FEA53439BB20380AD
:10131C002A68B2F850309BB295F8281003EBC10341
:10132C00023302EB4302B2F80034C3F309036B64DB
:10133C00EA6B1A44EA630021284602F082F895F819
:10134C002430002B3FF45BAF2B6C002B7FF457AF9A
:10135C0095F824302A6843F08003A2F84C3000231F
:10136C0085F824304BE7B0F850309BB295F86821E3
:10137C0003EBC203063300EB4303B3F80034C3F3AF
:10138C000903C5F88431B5F86E2105F52C7101F00F
:10139C0017FA2A68138823F070031B051B0D43F002
:1013AC0080031380284602F038F828E74BB9B2F8CE
:1013BC000C346FEA43436FEA53439BB2A2F80C34EC
:1013CC008BE7590813F0010F00D00131B2F80C343F
:1013DC0098B28B029BB20343A2F80C347DE730F831
:1013EC0024309EB213F4004F4CD116F0800F3FF412
:1013FC0006AF621C02EB820105EBC101286830F8D4
:10140C0024309BB223F4E14323F070036FEA43438F
:10141C006FEA53439BB220F82430CB78012B00F0B9
:10142C00F28016F4807F40F07E812868B0F850304E
:10143C009BB2621C02EB820215F8326003EBC6030E
:10144C00023300EB4303B3F80034C3F3090304EB9A
:10145C00840205EBC202126C9A4240F24C8104EBFE
:10146C00840705EBC707D21A3A6404EB840205EB38
:10147C00C202126C002A40F045813146284601F028
:10148C00E0FFBCE630F8243023F070031B051B0D85
:10149C0043F0800320F8243004EB8401C90001F5EB
:1014AC00B47105EB010804EB840305EBC30393F85B
:1014BC007431002B42D12868B0F850309BB204EB49
:1014CC00840205EBC20292F8682103EBC2030633D7
:1014DC0000EB4303B3F80074C7F3090717BB04EB25
:1014EC00840305EBC303D3F884213A44C3F8842165
:1014FC00D3F87C213A44C3F87C21D3F880313BB13A
:10150C0004EB840305EBC303D3F878319F4275D207
:10151C0004EB840305EBC30393F86811284601F030
:10152C0084FF62E704EB840105EBC1013B46B1F893
:10153C006E21D1F87C1101F043F9D0E704EB840360
:10154C0005EBC30393F86B31022B35D0296804EB00
:10155C00840205EBC20292F8680131F820309BB28C
:10156C0023F4E04323F0700343F4004343F0C0033F
:10157C0021F82030286892F8682130F8223013F4D2
:10158C00804F20D0B0F850309BB203EBC203023333
:10159C0000EB4303B3F80074C7F30907002F9ED088
:1015AC0004EB840105EBC1013B46B1F87021D1F885
:1015BC007C1101F005F992E7324641462846FFF7C7
:1015CC007BFB07468BE7B0F850309BB203EBC203B2
:1015DC00063300EB4303B3F80074C7F30907002F7D
:1015EC003FF47DAF04EB840105EBC1013B46B1F840
:1015FC007221D1F87C1101F0E3F870E741462868BC
:10160C0000F0F3FCF1E604EB840305EBC3030022CA
:10161C001A6493F83430FBB116F0400F37D04B7886
:10162C001BBB2B68B3F8502092B21344621C02EB24
:10163C00820215F8322003EB0213B3F80424C2F330
:10164C000902A3F80424B3F804246FEA42426FEAB7
:10165C00524292B2A3F80424013404EB840415F82A
:10166C003410284601F0EDFEC9E5012BF4D12B68AE
:10167C00B3F8502092B21344621C02EB820215F8AC
:10168C00322003EB02130022A3F80424E4E72A68B7
:10169C00631C03EB830305EBC3035B78D3B9B2F88C
:1016AC0050309BB21344621C02EB820215F83220BC
:1016BC0003EB0213B3F80C24C2F30902A3F80C24B5
:1016CC00B3F80C246FEA42426FEA524292B2A3F88A
:1016DC000C24C1E7012BBFD1B2F850309BB213449C
:1016EC00621C02EB820215F8322003EB021300227B
:1016FC00A3F80C24B0E704EB840205EBC20200272C
:10170C001764B2E604EB840205EBC202D66B1E44EE
:10171C00D663526C04EB840405EBC4041344636479
:10172C0000F063FC6BE532462846FFF753FB66E599
:10173C000020BDE8F08190F8A832012B0DD010B537
:10174C000446012380F8A83280F82410006800F0C9
:10175C002DFC002084F8A80210BD0220704710B5A3
:10176C0084B00446006800F027FC10F4004F20D130
:10177C0010F4806F21D110F4804F2FD110F4005F42
:10178C0037D110F4805F3ED110F4006F40F08780A9
:10179C0010F4007F40F0AE8010F4807F27D02268D8
:1017AC00B2F844309BB223F480739BB2A2F844305D
:1017BC001DE02046FFF720FD19E02268B2F8443006
:1017CC009BB223F480639BB2A2F84430204601F014
:1017DC0049FE00212046FFF7AEFF08E02268B2F870
:1017EC0044309BB223F480439BB2A2F8443004B043
:1017FC0010BD2268B2F844309BB223F400539BB264
:10180C00A2F84430F3E72268B2F840309BB223F0E0
:10181C0004039BB2A2F840302268B2F840309BB26D
:10182C0023F008039BB2A2F84030204601F03CFEA6
:10183C002268B2F844309BB223F480539BB2A2F8D6
:10184C004430D4E7226832F8231004AA02EB430296
:10185C0022F8101C0133DBB2072BF3D92268B2F843
:10186C0040309BB243F00103A2F840302268B2F83A
:10187C0040309BB223F001039BB2A2F840302368A6
:10188C00B3F8442012F4806FF9D0B3F8442092B22C
:10189C0022F4806292B2A3F8442000230BE00023D0
:1018AC00DAE7226804A901EB430131F8101C22F895
:1018BC0023100133DBB2072BF3D92268B2F8403086
:1018CC009BB243F00803A2F840302268B2F84430CF
:1018DC009BB223F400639BB2A2F844302268B2F8A6
:1018EC0040309BB243F00403A2F84030204601F094
:1018FC00CBFD7CE72268B2F844309BB223F4007332
:10190C009BB2A2F84430204601F0A6FD6FE710B55B
:10191C000446084611F0800F25D101F0070C0CEBA2
:10192C008C01C90001F5B47E04EB0E010CEB8C0CA0
:10193C0004EBCC0C4FF0000E8CF869E100F00700C2
:10194C0008700A61CB70022B1AD094F8A832012BC4
:10195C0019D0012384F8A832206800F0CCF80020BC
:10196C0084F8A80210BD01F0070C0CF1010C0CEB73
:10197C008C0104EBC1014FF0010E81F801E0DDE7B1
:10198C0000230B71E1E70220ECE710B501F0070C26
:10199C000CEB8C01C90001F5B4710CEB8C0E00EB57
:1019AC00CE0ECEF87C21CEF880310024CEF88441C6
:1019BC008EF869418EF868C10144006800F015FB8F
:1019CC00204610BD38B501F0070404F1010C0CEBF6
:1019DC008C0104EB840E00EBCE0ECEF83C20CEF83E
:1019EC00403001228EF84C20CEF848300025CEF83D
:1019FC00445000EBC1035A7000F83140194600689E
:101A0C0000F0F3FA284638BD38B501F007054268F6
:101A1C00954231D804460B4611F0800F1ED101EBD4
:101A2C008101C90001F5B471014403EB830300EBA0
:101A3C00C303002283F8692101238B700D7094F885
:101A4C00A832012B1AD0012384F8A832206800F0A8
:101A5C0037FA5DB1002084F8A80238BD6B1C03EB8B
:101A6C00830100EBC10101224A70E5E704F52C71FA
:101A7C00206800F0A5FAEDE70120EEE70220ECE784
:101A8C000B4601F00F014268914230D810B5044664
:101A9C0013F0800F21D103F0070202EB8201C90081
:101AAC0001F5B471014402EB820200EBC20200208A
:101ABC0082F8690100228A7003F007030B7094F816
:101ACC00A832012B15D0012384F8A832206800F02D
:101ADC001CFA002084F8A80210BD03F007020132A2
:101AEC0002EB820100EBC10101204870E2E701200A
:101AFC0070470220F0E710B5034691F800C030F8AB
:101B0C002C2092B222F4EC4222F0700292B2C878ED
:101B1C00032861D8DFE800F0555C0258002048F239
:101B2C00800E42EA0E0223F82C2091F800C033F804
:101B3C002C2092B222F4E04222F0700242EA0C0213
:101B4C0042EA0E0223F82C200A7B002A40F0DC80AB
:101B5C004A78002A51D0B3F8502092B21A440C782B
:101B6C0002EB0412B1F806C04FEA5C0C4FEA4C0CC5
:101B7C00A2F800C40C7833F8242012F0400F0CD0DB
:101B8C0033F8242092B222F4E04222F0700242F4A4
:101B9C00004242F0C00223F82420CA78012A1DD04A
:101BAC00097833F8212092B222F4E04222F040026C
:101BBC0082F0200242F4004242F0800223F82120FD
:101BCC0017E142F40072AAE742F4C0620020A6E7D3
:101BDC0042F480620020A2E70120A0E7097833F8E4
:101BEC00212092B222F4E04222F0400242F4004260
:101BFC0042F0800223F82120FBE0B3F8502092B28F
:101C0C001A440C7802EB0412B1F806C04FEA5C0CD3
:101C1C004FEA4C0CA2F808C4B3F8502092B21A4404
:101C2C000C7802EB0412B2F80CC4CCF3090CA2F839
:101C3C000CC40C693E2C39D94FEA541E14F01F0FFA
:101C4C0001D10EF1FF3EB2F80CC41FFA8CFC4FEA26
:101C5C008E2E1FFA8EFE4CEA0E0C4CF4004CA2F8A1
:101C6C000CC40C7833F8242012F4804F0CD033F8C9
:101C7C00242092B222F4E04222F0700242F440425C
:101C8C0042F0800223F82420097869BB33F8212024
:101C9C0092B222F4804222F0700282F4405242F45A
:101CAC00004242F0800223F82120A2E04CB9B2F8A5
:101CBC000C446FEA44446FEA5444A4B2A2F80C44B6
:101CCC00CFE74FEA540C14F0010F01D00CF1010CCA
:101CDC00B2F80C44A4B24FEA8C2C1FFA8CFC44EAE8
:101CEC000C04A2F80C44BCE733F8212092B222F485
:101CFC00804222F0700282F4005242F4004242F020
:101D0C00800223F8212074E0CA78022A72D00C7861
:101D1C0033F8242092B222F4E24222F0700242F410
:101D2C00004242F0800223F82420B3F8502092B2F3
:101D3C001A4491F800C002EB0C12B1F808C04FEA3B
:101D4C005C0C4FEA4C0CA2F800C4B3F8502092B2D1
:101D5C001A4491F800C002EB0C12B1F80AC04FEA19
:101D6C005C0C4FEA4C0CA2F808C44A78002A50D1FB
:101D7C000C7833F8242012F4804F0CD033F8242044
:101D8C0092B222F4E04222F0700242F4404242F05D
:101D9C00800223F824200C7833F8242012F0400F12
:101DAC000CD033F8242092B222F4E04222F07002DC
:101DBC0042F4004242F0C00223F8242091F800C003
:101DCC0033F82C2092B222F4804222F0700282F47A
:101DDC00405248F28004224323F82C20097833F82F
:101DEC00212092B222F4E04222F04002224323F856
:101DFC00212010BD0C7833F8242092B222F4E0425A
:101E0C0022F0700242F4014242F0800223F82420B6
:101E1C008BE70C7833F8242012F4804F0CD033F875
:101E2C00242092B222F4E04222F0700242F44042AA
:101E3C0042F0800223F824200C7833F8242012F08E
:101E4C00400F0CD033F8242092B222F4E04222F05E
:101E5C00700242F4004242F0C00223F82420CA78F7
:101E6C00012A1ED00C7833F8242092B222F4E042DE
:101E7C0022F0400282F0200242F4004242F0800242
:101E8C0023F82420097833F8212092B222F48042DE
:101E9C0022F0700242F4004242F0800223F821202A
:101EAC00A7E70C7833F8242092B222F4E04222F017
:101EBC00400242F4004242F0800223F82420E1E781
:101ECC004B788BB10A7830F822309BB223F4E04384
:101EDC0023F0400383F0100343F4004343F08003EA
:101EEC0020F82230002070470A7830F822309BB25C
:101EFC0023F4804323F0700383F4805343F40043B2
:101F0C0043F0800320F82230ECE70B7B002B4BD105
:101F1C004B7833B30A7830F8223013F0400F0CD0E2
:101F2C0030F822309BB223F4E04323F0700343F4E7
:101F3C00004343F0C00320F82230CB78012B33D080
:101F4C000A7830F822309BB223F4E04323F04003AC
:101F5C0083F0200343F4004343F0800320F8223045
:101F6C0022E00A7830F8223013F4804F0CD030F88D
:101F7C0022309BB223F4E04323F0700343F440433C
:101F8C0043F0800320F822300A7830F822309BB2DC
:101F9C0023F4804323F0700383F4405343F4004351
:101FAC0043F0800320F822300020704711B98023C1
:101FBC00A0F84C3000207047B0F8440080B2704755
:101FCC000020704701335B0800EB420000F5806095
:101FDC0008E00A7891F801C042EA0C2220F8042BA0
:101FEC000231013B002BF4D1704770B505460C460D
:101FFC004A78012A3BD00B7B002B40F0A6828B69E0
:10200C000A69934240F284829B1A8B61B5F8503076
:10201C009BB22B44217803EB0113B3F80C14C1F3DE
:10202C000901A3F80C143E2A40F27682510912F0F1
:10203C001F0F00D10139B3F80C2492B2890289B276
:10204C000A4342F40042A3F80C24227835F82230DB
:10205C009BB223F4804323F0700383F4405343F486
:10206C00004343F0800325F82230002070BD8E69B8
:10207C0009698E4200D90E46237B73B3E378022B99
:10208C004DD0236A9B1B2362217835F8213013F045
:10209C00400F00F0F581002A40F0E281B5F8503095
:1020AC009BB22B4403EB0113B3F80C24C2F30902CB
:1020BC00A3F80C243E2E40F2BA81710916F01F0FC2
:1020CC0000D10139B3F80C2492B2890289B20A43C7
:1020DC0042F40042A3F80C24CBE1B6B23346E288BA
:1020EC0061692846FFF76EFFB5F850309BB22B4460
:1020FC00227803EB0213A3F80464227835F822301B
:10210C009BB223F4E04323F0400383F0300343F409
:10211C00004343F0800325F822300020A6E7236A11
:10212C00994280F06681227835F822309BB223F4F4
:10213C00E04323F0700343F4014343F0800325F89C
:10214C002230236A9B1B2362227835F8223013F04D
:10215C00400F00F0A7806378B3BBB5F850309BB24A
:10216C002B4403EB0213B3F80C24C2F30902A3F8BB
:10217C000C243E2E0FD9710916F01F0F00D1013916
:10218C00B3F80C2492B2890289B20A4342F4004299
:10219C00A3F80C241AE04EB9B3F80C246FEA4242AF
:1021AC006FEA524292B2A3F80C240FE0720816F0B8
:1021BC00010F00D00132B3F80C1489B2920292B222
:1021CC000A43A3F80C2401E0012B30D0B3B262898E
:1021DC0061692846FFF7F6FE636933446361236A3D
:1021EC00226993422DD99B1B23626378002B45D126
:1021FC00B5F850309BB22B44227803EB0213B3F8A2
:10220C000424C2F30902A3F804243E2E1DD971093B
:10221C0016F01F0F00D10139B3F8042492B28902D1
:10222C0089B20A4342F40042A3F8042428E0B5F82A
:10223C0050309BB22B4403EB0213B2B2A3F80C2424
:10224C00C4E7002222621E46CFE74EB9B3F804243D
:10225C006FEA42426FEA524292B2A3F804240FE0B2
:10226C00720816F0010F00D00132B3F8041489B2D1
:10227C00920292B20A43A3F8042401E0012B06D087
:10228C00B3B2228961692846FFF79CFE35E7B5F8A1
:10229C0050309BB22B44227803EB0213B2B2A3F85A
:1022AC000424EDE76378B3BBB5F850309BB22B44F4
:1022BC0003EB0213B3F80424C2F30902A3F80424B9
:1022CC003E2E0FD9710916F01F0F00D10139B3F84A
:1022DC00042492B2890289B20A4342F40042A3F860
:1022EC0004241AE04EB9B3F804246FEA42426FEAB0
:1022FC00524292B2A3F804240FE0720816F0010FB8
:10230C0000D00132B3F8041489B2920292B20A439B
:10231C00A3F8042401E0012B30D0B3B22289616907
:10232C002846FFF74FFE636933446361236A2269D1
:10233C0093422DD99B1B23626378002B45D1B5F8B2
:10234C0050309BB22B44227803EB0213B3F80C24CD
:10235C00C2F30902A3F80C243E2E1DD9710916F004
:10236C001F0F00D10139B3F80C2492B2890289B243
:10237C000A4342F40042A3F80C2428E0B5F850308C
:10238C009BB22B4403EB0213B2B2A3F80424C4E7B0
:10239C00002222621E46CFE74EB9B3F80C246FEA36
:1023AC0042426FEA524292B2A3F80C240FE0720838
:1023BC0016F0010F00D00132B3F80C1489B292025E
:1023CC0092B20A43A3F80C2401E0012B06D0B3B25D
:1023DC00628961692846FFF7F5FD8EE6B5F8503045
:1023EC009BB22B44227803EB0213B2B2A3F80C2459
:1023FC00EDE7217835F8212092B222F4E24222F066
:10240C00700242F4004242F0800225F82120B5F817
:10241C00502092B22A44217802EB01129BB2A2F80E
:10242C000434228961692846FFF7CCFD65E64EB974
:10243C00B3F80C246FEA42426FEA524292B2A3F80C
:10244C000C2416E0720816F0010F00D00132B3F81C
:10245C000C1489B2920292B20A43A3F80C2408E03D
:10246C00B5F850309BB22B4403EB0113B2B2A3F876
:10247C000C24B3B2628961692846FFF7A3FD3CE6E0
:10248C00B2BBB5F850309BB22B4403EB0113B3F83D
:10249C000424C2F30902A3F804243E2E0FD97109B7
:1024AC0016F01F0F00D10139B3F8042492B289023F
:1024BC0089B20A4342F40042A3F8042421E04EB945
:1024CC00B3F804246FEA42426FEA524292B2A3F884
:1024DC00042416E0720816F0010F00D00132B3F894
:1024EC00041489B2920292B20A43A3F8042408E0BD
:1024FC00B5F850309BB22B4403EB0113B2B2A3F8E6
:10250C000424B3B2228961692846FFF75BFDF4E528
:10251C0000228A611A4679E54AB9B3F80C246FEAAD
:10252C0042426FEA524292B2A3F80C248DE5510854
:10253C0012F0010F00D00131B3F80C2492B28902D1
:10254C0089B20A43A3F80C247FE5CB78022B4DD03B
:10255C00012B40F0338189692369994240F2EA806A
:10256C00C91AA161F2B9B5F8502092B22A44217867
:10257C0002EB0112B2F80414C1F30901A2F804141D
:10258C003E2B40F2DB80580913F01F0F00D10138AD
:10259C00B2F8041489B2800280B2014341F40041C4
:1025AC00A2F804146278002A40F0FA80B5F85020A2
:1025BC0092B22A44217802EB0112B2F80C14C1F346
:1025CC000901A2F80C143E2B40F2D180590913F0EA
:1025DC001F0F00D10139B2F80C349BB2890289B2B9
:1025EC000B4343F40043A2F80C342EE5F2B9B0F8D7
:1025FC0050309BB203440A7803EB0213B3F8042463
:10260C00C2F30902A3F804240A693E2A31D95109FC
:10261C0012F01F0F00D10139B3F8042492B28902D1
:10262C0089B20A4342F40042A3F804246378002BD5
:10263C0051D1B5F850309BB22B44227803EB0213E6
:10264C00B3F80C24C2F30902A3F80C2422693E2A25
:10265C0028D9510912F01F0F00D10139B3F80C24FD
:10266C0092B2890289B20A4342F40042A3F80C24C4
:10267C0033E04AB9B3F804246FEA42426FEA52429B
:10268C0092B2A3F80424D1E7510812F0010F00D044
:10269C000131B3F8042490B28A0292B20243A3F837
:1026AC000424C3E74AB9B3F80C246FEA42426FEA38
:1026BC00524292B2A3F80C240FE0510812F0010F11
:1026CC0000D00131B3F80C2490B28A0292B20243CA
:1026DC00A3F80C2401E0012B1CD0E369002B3FF480
:1026EC00B4AC227835F8223099B213F4804F1CD058
:1026FC0011F0400F3FF4A9AC35F822309BB223F413
:10270C00E04323F0700343F4004343F0C00325F887
:10271C0022309AE4B5F850309BB22B44227803EB6C
:10272C000213228AA3F80C24D7E711F0400F7FF490
:10273C008CACE1E70023A3610B4613E74BB9B2F86D
:10274C0004146FEA41416FEA514189B2A2F80414B2
:10275C0028E7590813F0010F00D00131B2F8040436
:10276C0080B2890289B20143A2F804141AE74BB96A
:10277C00B2F80C346FEA43436FEA53439BB2A2F8AE
:10278C000C3462E4590813F0010F00D00131B2F897
:10279C000C3498B28B029BB20343A2F80C3454E471
:1027AC00012A7FF452ACB5F8502092B22A44217819
:1027BC0002EB01129BB2A2F80C3446E4012055E462
:1027CC0010B45C0800EB420000F5806007E030F8C4
:1027DC00042B0A70C2F307224A700231013C002C10
:1027EC00F5D113F0010F01D003880B7010BC7047AA
:1027FC0010B504460E4B18680E4B1A784FF47A73CA
:10280C00B3FBF2F3B0FBF3F000F0E8FD68B90F2C6A
:10281C0001D901200AE0002221464FF0FF3000F0E0
:10282C00BFFD054B1C60002000E0012010BD00BF67
:10283C0008000020000000200400002008B5074A12
:10284C00136843F010031360032000F097FD0F2072
:10285C00FFF7CEFFFDF738FE002008BD0020024038
:10286C00034A1168034B1B780B441360704700BF7D
:10287C003C01002000000020014B1868704700BF8D
:10288C003C01002038B50446FFF7F6FF0546B4F1CD
:10289C00FF3F02D0044B1B781C44FFF7EDFF401B9D
:1028AC00A042FAD338BD00BF0000002082B0084B14
:1028BC001B68084AA2FB03235B0A00FB03F301938A
:1028CC0000BF019B5A1E0192002BF9D102B0704738
:1028DC0008000020D34D6210002800F0F18170B583
:1028EC0082B00446036813F0010F2CD0994B5B683F
:1028FC0003F00C03042B1DD0964B5B6803F00C0308
:10290C00082B12D06368B3F5803F41D0002B55D112
:10291C0003F1804303F504331A6822F480321A6001
:10292C001A6822F480221A6037E08A4B5B6813F431
:10293C00803FE7D0874B1B6813F4003F03D06368DC
:10294C00002B00F0BF81236813F0020F75D0814B70
:10295C005B6813F00C0F5FD07E4B5B6803F00C03CD
:10296C00082B54D02369002B00F08A807A4B01226B
:10297C001A60FFF781FF0546764B1B6813F0020FB8
:10298C0075D1FFF779FF401B0228F5D903209EE192
:10299C00704A136843F480331360636843B3FFF7E2
:1029AC006BFF05466B4B1B6813F4003FCBD1FFF755
:1029BC0063FF401B6428F5D9032088E1B3F5A02FF1
:1029CC0009D0644B1A6822F480321A601A6822F417
:1029DC0080221A60E1E703F18043A3F53C331A68C7
:1029EC0042F480221A601A6842F480321A60D4E7EA
:1029FC00FFF742FF0546574B1B6813F4003FA2D06C
:102A0C00FFF73AFF401B6428F5D903205FE1514BD7
:102A1C005B6813F4803FA5D14E4B1B6813F0020F7B
:102A2C0003D02369012B40F04F814A4A136823F0ED
:102A3C00F803616943EAC1031360236813F0080FBC
:102A4C0033D0A369002B5CD0434B0122C3F8802404
:102A5C00FFF712FF05463F4B5B6A13F0020F21D1C3
:102A6C00FFF70AFF401B0228F5D903202FE1394A52
:102A7C00136823F0F803616943EAC1031360DCE7D0
:102A8C00354B00221A60FFF7F7FE0546314B1B68E9
:102A9C0013F0020FD1D0FFF7EFFE401B0228F5D93F
:102AAC00032014E10120FFF701FF236813F0040F4A
:102ABC0000F09680274BDB6913F0805F34D1254BF7
:102ACC00DA6942F08052DA61DB6903F080530193DA
:102ADC00019B0125214B1B6813F4807F26D0E368F2
:102AEC00012B3DD0002B53D103F1804303F504336C
:102AFC001A6A22F001021A621A6A22F004021A629D
:102B0C0033E0154B0022C3F88024FFF7B5FE0546D1
:102B1C00104B5B6A13F0020FC7D0FFF7ADFE401BE2
:102B2C000228F5D90320D2E00025D3E70B4A13681D
:102B3C0043F480731360FFF79FFE0646074B1B6838
:102B4C0013F4807FCBD1FFF797FE801B6428F5D957
:102B5C000320BCE000100240000042420070004024
:102B6C005F4A136A43F001031362E36833B3FFF760
:102B7C0083FE06465A4B1B6A13F0020F2FD1FFF748
:102B8C007BFE801B41F288339842F3D903209EE0F0
:102B9C00052B09D0524B1A6A22F001021A621A6AEA
:102BAC0022F004021A62E0E74D4B1A6A42F004026A
:102BBC001A621A6A42F001021A62D6E7FFF75CFE4B
:102BCC000646474B1B6A13F0020F08D0FFF754FE62
:102BDC00801B41F288339842F3D9032077E0E5B9A2
:102BEC00E369002B72D03E4A526802F00C02082AAC
:102BFC0056D0022B17D03B4B00221A66FFF73CFE37
:102C0C000446374B1B6813F0007F47D0FFF734FEA8
:102C1C00001B0228F5D9032059E0314AD36923F06F
:102C2C008053D361DCE72F4B00221A66FFF724FE9A
:102C3C0005462B4B1B6813F0007F06D0FFF71CFEDC
:102C4C00401B0228F5D9032041E0236AB3F5803FED
:102C5C001AD023494B6823F47413226A606A024326
:102C6C0013434B601F4B01221A66FFF705FE044607
:102C7C001B4B1B6813F0007F0ED1FFF7FDFD001BF3
:102C8C000228F5D9032022E0154A536823F40033B7
:102C9C00A1680B435360DCE7002018E0002016E02D
:102CAC00012B16D00E4B5B6803F48031226A9142E3
:102CBC0011D103F47013626A93420ED1002006E026
:102CCC0001207047012002E0012000E0002002B04A
:102CDC0070BD0120FBE70120F9E70120F7E700BFF9
:102CEC0000100240000042420F4B5B6803F00C02E4
:102CFC00082A01D00D487047C3F383420C49885C05
:102D0C0013F4803F0BD0084B5B68C3F34043094A74
:102D1C00D35C064A02FB00F0B0FBF3F07047064BA5
:102D2C0003FB00F0704700BF0010024000127A0055
:102D3C004C4800084848000800093D00002800F0F5
:102D4C00A08070B50D460446524B1B6803F0070378
:102D5C008B420BD24F4A136823F007030B431360CB
:102D6C00136803F007038B4240F08D80236813F047
:102D7C00020F17D013F0040F04D0474A536843F4E2
:102D8C00E0635360236813F0080F04D0424A536881
:102D9C0043F460535360404A536823F0F003A16836
:102DAC000B435360236813F0010F31D06368012B80
:102DBC0020D0022B25D0384A126812F0020F64D0B2
:102DCC0035494A6822F0030213434B60FFF754FD68
:102DDC000646314B5B6803F00C036268B3EB820F61
:102DEC0016D0FFF749FD801B41F288339842F0D989
:102DFC00032045E0284A126812F4003FE0D101207C
:102E0C003EE0254A126812F0007FD9D1012037E04C
:102E1C00204B1B6803F00703AB420AD91D4A136809
:102E2C0023F007032B431360136803F00703AB4233
:102E3C002DD1236813F0040F06D0174A536823F4DE
:102E4C00E063E1680B435360236813F0080F07D06D
:102E5C00114A536823F46053216943EAC103536058
:102E6C00FFF742FF0C4B5B68C3F303130B4AD35CB5
:102E7C00D8400B4B18600B4B1868FFF7B9FC0020BF
:102E8C0070BD012070470120FAE70120F8E701200E
:102E9C00F6E700BF00200240001002406448000822
:102EAC000800002004000020014B1868704700BF88
:102EBC000800002008B5FFF7F7FF044B5B68C3F36D
:102ECC000223034AD35CD84008BD00BF0010024067
:102EDC005C48000808B5FFF7E7FF044B5B68C3F3D9
:102EEC00C223034AD35CD84008BD00BF0010024087
:102EFC005C48000870B582B00446036813F0010FFB
:102F0C0036D03F4BDB6913F0805F4AD13C4BDA691A
:102F1C0042F08052DA61DB6903F080530193019B2C
:102F2C000125384B1B6813F4807F3CD0344B1B6A53
:102F3C0013F4407313D0626802F440729A420ED0BC
:102F4C002F4A136A23F440702F490126C1F84064BC
:102F5C000026C1F84064106213F0010F37D1284AE3
:102F6C00136A23F4407361680B431362002D3FD145
:102F7C00236813F0020F06D0214A536823F4404310
:102F8C00A1680B435360236813F0100F35D01C4A13
:102F9C00536823F48003E1680B435360002002B0B4
:102FAC0070BD0025BDE7174A136843F480731360A6
:102FBC00FFF762FC0646134B1B6813F4807FB5D1F8
:102FCC00FFF75AFC801B6428F5D90320E7E7FFF7CD
:102FDC0053FC06460A4B1B6A13F0020FBFD1FFF7D6
:102FEC004BFC801B41F288339842F3D90320D6E77F
:102FFC00D36923F08053D361BAE70020CFE700BF39
:10300C0000100240007000400000424270B582B0D7
:10301C000024A4469EE07C4DAB4214D00CD8A5F500
:10302C008015AB420FD005F57025AB420BD0A5F542
:10303C008015AB421FD106E0744DAB4203D005F5B1
:10304C008035AB4217D18B68A3B1012B0DD04261F7
:10305C00082410E0CC680EE0CC6804340BE0CC689B
:10306C00083408E0CC680C3405E00261082402E066
:10307C00002400E00424BEF1FF0F37D806464FEAC7
:10308C008C0233680F25954023EA050304FA02F2FB
:10309C00134333604B6813F0805F59D05C4B9A69D3
:1030AC0042F001029A619B6903F001030193019BB9
:1030BC004FEA9C02951C574B53F825600CF0030506
:1030CC00AD000F23AB4026EA0306534B984214D0B5
:1030DC0003F58063984279D003F58063984277D0EA
:1030EC0003F58063984206D0042307E0061DACF17B
:1030FC0008029200C5E7032300E00023AB403343F2
:10310C000232444D45F822304B6813F4801F61D0D5
:10311C00424A936843EA0E0393604B6813F4001F12
:10312C005ED03E4AD36843EA0E03D3604B6813F477
:10313C00003F5BD0394A536843EA0E0353604B6837
:10314C0013F4803F58D0354A136843EA0E031360DA
:10315C000CF1010C0B6833FA0CF253D0012202FA79
:10316C000CF203EA020E32EA0303F1D14B68122B84
:10317C003FF651AF122B3FF67EAF01A555F823F069
:10318C0053300008613000086B3000087D300008B7
:10319C008330000883300008833000088330000837
:1031AC008330000883300008833000088330000827
:1031BC008330000883300008833000088330000817
:1031CC00833000086530000871300008012395E752
:1031DC00022393E7114A936823EA0E0393609CE75A
:1031EC000E4AD36823EA0E03D3609FE70B4A536859
:1031FC0023EA0E035360A2E7084A136823EA0E037E
:10320C001360A5E702B070BD000022100000311061
:10321C000010024000000140000801400004014081
:10322C008368194201D001207047002070470AB111
:10323C0001617047090401617047034690F8212031
:10324C00022A06D004228263002280F8202001206A
:10325C00704701680A6822F00E020A6001680A6869
:10326C0022F001020A60026CC06B012101FA02F229
:10327C00426083F82110002083F820007047000082
:10328C0008B590F82130022B03D00423836301206E
:10329C0008BD0268136823F00E03136002681368FC
:1032AC0023F0010313600368194A934214D01432BB
:1032BC0093421FD0143293421ED0143293421ED02C
:1032CC00143293421ED01432934202D04FF08072CB
:1032DC0003E04FF4801200E001220E4B5A600123F0
:1032EC0080F82130002380F82030436B6BB1984775
:1032FC000020CDE71022F0E74FF48072EDE74FF499
:10330C008052EAE74FF48032E7E70020C0E700BFC5
:10331C000800024000000240002808DB0901C9B285
:10332C0000F1604000F5614080F80013704700F038
:10333C000F000901C9B2014B1954704714ED00E09C
:10334C0000B500F00700C0F1070CBCF1040F28BF5A
:10335C004FF0040C031D062B0ED9C31E4FF0FF3E7D
:10336C000EFA0CF021EA000199400EFA03FE22EA53
:10337C000E0241EA020000BD0023EFE7074AD368C2
:10338C0023F4E0631B041B0C000200F4E060034315
:10339C0043F0BF6343F40033D360704700ED00E0AB
:1033AC0010B50446054BD868C0F30220FFF7C8FFE0
:1033BC0001462046FFF7B0FF10BD00BF00ED00E056
:1033CC00002807DB00F01F02400901239340024A4A
:1033DC0042F82030704700BF00E100E00138B0F146
:1033EC00807F0BD24FF0E0235861054AF02182F820
:1033FC0023100020986107221A6170470120704742
:10340C0000ED00E07047022805D8DFE800F0050465
:10341C000200012070470220704708B500F52C719E
:10342C00D0F8EC0200F0E7FB08BD08B501EB810316
:10343C0000EBC303D3F87C21D0F8EC0200F008FCBD
:10344C0008BD08B501EB810300EBC303DA6BD0F8C0
:10345C00EC0200F043FC08BD08B5D0F8EC0200F01B
:10346C00E4FC08BD10B504468368022B09D1012188
:10347C00D4F8EC0200F0C2FCD4F8EC0200F096FC9C
:10348C0010BDFCF7E3FEF2E710B50446D0F8EC02F1
:10349C0000F0B7FCA36923B1024A136943F0060399
:1034AC00136110BD00ED00E008B5D0F8EC0200F09F
:1034BC00B1FC08BD08B594461A466346D0F8C00264
:1034CC00FEF725FAFFF79FFF08BD08B5D0F8C0023C
:1034DC00FEF79AFAFFF797FF08BD08B5D0F8C002BF
:1034EC00FEF7CEFAFFF78FFF08BDD0F8C03211F00F
:1034FC00800F08D101F07F0101EB810103EBC103C7
:10350C0093F86A01704701F07F01013101EB8101F1
:10351C0003EBC1039878704708B5D0F8C002FEF7EA
:10352C000AF9FFF770FF08BD08B5D0F8C002FEF726
:10353C0049FAFFF768FF08BD08B5D0F8C002FEF7DE
:10354C0024FAFFF760FF08BD026802F10C0353E890
:10355C00003F23F490730C3242E800310029F3D180
:10356C00026802F1140353E8003F23F00103143204
:10357C0042E800310029F3D1036B012B05D0202345
:10358C0080F84230002303637047026802F10C0399
:10359C0053E8003F23F010030C3242E800310029BD
:1035AC00F3D1ECE790F84130212B01D00220704789
:1035BC008368B3F5805F17D0036A5A1C02621A78CD
:1035CC0003685A60C38C9BB2013B9BB2C3844BB95A
:1035DC000268D36823F08003D3600268D36843F099
:1035EC004003D360002070470369002BE4D1036AC9
:1035FC001B880268C3F308035360036A0233036237
:10360C00E0E7000010B504460268136923F4405348
:10361C00C1680B43136183680269134342691A43FF
:10362C000168CB6823F4B05323F00C031343CB6035
:10363C000268536923F4407381690B435361026838
:10364C00134B9A4220D0FFF735FC024602EB820264
:10365C0002EB820263689B00B2FBF3F20D48A0FB05
:10366C0002314909642303FB11231B013233A0FBF4
:10367C0003035B0903F0F00202EB011203F00F03EA
:10368C00216813448B6010BDFFF724FC0246DDE774
:10369C00003801401F85EB512DE9F84305460F46D4
:1036AC0016469946DDF820802B681C6837EA04041E
:1036BC000CBF01240024B4422DD1B8F1FF3FF3D04C
:1036CC00B8F1000F05D0FFF7D7F8A0EB0900404583
:1036DC00EAD92A6802F10C0353E8003F23F4D073B3
:1036EC000C3242E800310029F3D12A6802F11403AC
:1036FC0053E8003F23F00103143242E80031002963
:10370C00F3D1202385F8413085F84230002385F829
:10371C004030032000E00020BDE8F88360B310B512
:10372C00044690F8413013B3242384F841302268C6
:10373C00D36823F40053D3602046FFF763FF22685D
:10374C00136923F4904313612268536923F02A030D
:10375C0053612268D36843F40053D3600020606443
:10376C00202384F8413084F84230606310BD80F827
:10377C004030FCF73DFFD7E7012070472DE9F041C1
:10378C0082B01E4690F84130202B4BD104460D469A
:10379C00904600294AD00AB9012044E00023436432
:1037AC00212380F84130FFF767F80746A4F82480FE
:1037BC00A4F82680A368B3F5805F02D04FF0000810
:1037CC000FE02369FBB14FF000080AE038F8023B28
:1037DC002268C3F308035360E28C92B2013A92B2AE
:1037EC00E284E38C9BB28BB100963B460022802195
:1037FC002046FFF751FFD8B9002DE7D015F8012B63
:10380C0023685A60E8E7A8460025EAE700963B469D
:10381C00002240212046FFF73FFF58B9202384F8AF
:10382C00413000E0022002B0BDE8F0810120FAE74F
:10383C000320F8E70320F6E7704708B50168CA686B
:10384C0022F04002CA60202280F84120FFF7F4FFEA
:10385C00002008BD7047704708B5406A0023C38537
:10386C00C384FFF7F8FF08BD704790F84230222B55
:10387C0068D18368B3F5805F4ED0826AB3F5805F00
:10388C0004D0002B55D10369002B52D103685B681F
:10389C001370836A01338362C38D9BB2013B9BB26D
:1038AC00C385002B50D100B583B00268D36823F0D8
:1038BC002003D3600268D36823F48073D36002685A
:1038CC00536923F001035361202380F84230002315
:1038DC004363036B012B32D100230363026802F1B3
:1038EC000C0353E8003F23F010030C3242E8003184
:1038FC000029F3D103681A6812F0100F06D00022C9
:10390C0001921A6801925B680193019B818DFFF70C
:10391C00ABFF002003B000BD0269002AADD1826A62
:10392C0003685B68C3F308031380836A0233836202
:10393C00B2E703685B6803F07F031370A9E7FFF736
:10394C0089FFE6E7022070470020704710B582B06F
:10395C00044602681368D068516913F00F0F09D13F
:10396C0013F0200F0CD010F0200F09D02046FFF7D9
:10397C007CFF16E011F0010115D110F4907F12D1EB
:10398C00216B012979D013F0800F03D010F0800F38
:10399C0040F0138113F0400F03D010F0400F40F0B3
:1039AC00108102B010BD13F0010F06D010F4807F0F
:1039BC0003D0626C42F00102626413F0040F04D075
:1039CC0019B1626C42F00202626413F0020F04D06F
:1039DC0019B1626C42F00402626413F0080F07D054
:1039EC0010F0200F00D119B1626C42F00802626431
:1039FC00626C002AD5D013F0200F02D010F0200FEB
:103A0C0029D123685B6903F04003626C12F0080F44
:103A1C0000D163B32046FFF797FD23685B6913F071
:103A2C00400F20D0226802F1140353E8003F23F02A
:103A3C004003143242E800310029F3D1E36B73B137
:103A4C00624A5A63E06BFFF71BFC0028A9D0E06BBD
:103A5C00436B9847A5E72046FFF707FFD1E72046C1
:103A6C00FFF7F9FE9DE72046FFF7F5FE99E72046A4
:103A7C00FFF7F1FE0023636493E713F0100F82D07D
:103A8C0010F0100F3FF47FAF0023019313680193E4
:103A9C0053680193019B536913F0400F51D0E26BB3
:103AAC0013685B689BB2002B3FF47BAFA18D9942EE
:103ABC007FF677AFE3859369202B37D0226802F12C
:103ACC000C0353E8003F23F480730C3242E80031BE
:103ADC000029F3D1226802F1140353E8003F23F0CC
:103AEC000103143242E800310029F3D1226802F1BB
:103AFC00140353E8003F23F04003143242E8003132
:103B0C000029F3D1202384F8423000232363226858
:103B1C0002F10C0353E8003F23F010030C3242E88F
:103B2C0000310029F3D1E06BFFF787FB02236363BD
:103B3C00A18DE38D9BB2C91A89B22046FFF794FE82
:103B4C002FE7A18DE38D9BB2C91A89B2E38D9BB28D
:103B5C00002B3FF426AF00293FF423AF226802F17B
:103B6C000C0353E8003F23F490730C3242E800300E
:103B7C000028F3D1226802F1140353E8003F23F02C
:103B8C000103143242E800300028F3D1202384F8DA
:103B9C00423000232363226802F10C0353E8003FF8
:103BAC0023F010030C3242E800300028F3D102233A
:103BBC0063632046FFF758FEF3E62046FFF7F2FC5E
:103BCC00EFE62046FFF739FEEBE600BF653800084C
:103BDC0008B5D0F8B4322BB11B68984700B908BDB2
:103BEC000220FCE70220FAE708B5D0F8B4325B6893
:103BFC009847002008BD38B5044600F52A752846BC
:103C0C0000F02BF90123C4F89432B4F8AE32C4F8A6
:103C1C00983294F8A81201F01F03012B08D0022B44
:103C2C000BD07BB92946204600F0C6FA002038BDDF
:103C3C002946204600F0F4FAF8E72946204600F021
:103C4C001FFBF3E701F080012046FFF73EFCEDE798
:103C5C0038B504460D4691BB1346D0F89422032A7E
:103C6C0003D0052A24D0084633E0D0F86011D0F8F0
:103C7C00642191420DD9891AC0F860118A4206D983
:103C8C008AB21946204600F001FC284621E092B287
:103C9C00F7E7D0F8B4321B691BB190F89C22032AC9
:103CAC0004D0204600F0FAFB284612E09847F8E7CB
:103CBC000021C0F89412FFF708FC284609E0D0F860
:103CCC00B4329B6933B190F89C22032A04D19847F3
:103CDC00002038BD0220FCE70220FAE738B5044684
:103CEC000D46002953D11346D0F89422022A0CD049
:103CFC00042A00D01AB980212046FFF7E6FB94F87D
:103D0C00A032012B3ED0284638BD026A416A8A4255
:103D1C001BD8C269B2FBF1F301FB13232BB99142FF
:103D2C0003D8D0F898329A421CD3D4F8B432DB685A
:103D3C001BB194F89C22032A21D080212046FFF746
:103D4C00C4FB204600F0B5FBD9E7521A026292B2CE
:103D5C00194600F093FB00231A4619462046FFF73C
:103D6C00EBFBCCE70022114600F088FB0021C4F8E5
:103D7C0098120B460A462046FFF7DEFBBFE72046AB
:103D8C009847DAE7002384F8A0322846BCE7D0F83D
:103D9C00B4325B6933B190F89C22032A04D1984762
:103DAC000020B1E70220AFE70220ADE770B5044672
:103DBC00402300221146FFF77DFB0125C4F8585122
:103DCC004026C4F864613346002280212046FFF768
:103DDC0071FBA561666284F89C520023C4F894328E
:103DEC006360C4F8A432D4F8B8322BB1D4F8B4322E
:103DFC005B68002120469847002070BD01740020AC
:103E0C00704790F89C3280F89D32042380F89C32E5
:103E1C000020704790F89C32042B01D00020704792
:103E2C0090F89D3280F89C32F8E708B590F89C32F7
:103E3C00032B01D0002008BDD0F8B432DB69002B75
:103E4C00F8D09847F6E708B54B88012B00D008BD91
:103E5C00C0F8A43200F022FBF9E70B7803704B7822
:103E6C0043708B78CA7803EB022343800B794A7931
:103E7C0003EB022383808B79CA7903EB0223C38083
:103E8C00704710B504468021FFF71FFB0021204628
:103E9C00FFF71BFB10BD30B583B005460C46002365
:103EAC00ADF806304A88130A013B062B00F2A480B9
:103EBC00DFE803F004182CA2A2869300D0F8B032ED
:103ECC001B680DF10601007C9847BDF806201AB15D
:103EDC00E388002B40F09480E388002B00F09A805C
:103EEC0003B030BD037C43B9D0F8B4329B6A0DF1FA
:103EFC000600984702234370E7E7D0F8B432DB6A38
:103F0C000DF10600984702234370DEE7D2B2052A72
:103F1C0052D8DFE802F003101D2A3744D0F8B03233
:103F2C005B6823B10DF10601007C9847CDE7214673
:103F3C00FFF7A7FFD4E7D0F8B0329B6823B10DF19F
:103F4C000601007C9847C0E72146FFF79AFFC7E7B8
:103F5C00D0F8B032DB6823B10DF10601007C984734
:103F6C00B3E72146FFF78DFFBAE7D0F8B0321B69F3
:103F7C0023B10DF10601007C9847A6E72146FFF717
:103F8C0080FFADE7D0F8B0325B6923B10DF10601CB
:103F9C00007C984799E72146FFF773FFA0E7D0F81C
:103FAC00B0329B6923B10DF10601007C98478CE778
:103FBC002146FFF766FF93E72146FFF762FF8FE785
:103FCC00037C33B9D0F8B4325B6B0DF10600984723
:103FDC007BE72146FFF755FF82E7037C43B9D0F816
:103FEC00B4321B6B0DF106009847072343706CE746
:103FFC002146FFF746FF73E72146FFF742FF6FE7C5
:10400C009A4228BF1A46ADF806200146284600F011
:10401C0028FA61E7284600F041FA61E738B5044612
:10402C008B88F3B9CB88E3B94B887F2B19D803F075
:10403C007F0590F89C32032B0CD080F89E522946B9
:10404C00FFF76AFA204600F029FA35B1022384F80A
:10405C009C3209E0FFF715FF06E0012384F89C323F
:10406C0002E02046FFF70DFF38BD000038B50446CE
:10407C000D468978284B197001290ED890F89C327E
:10408C00022B0ED0032B21D02946FFF7FAFE224B30
:10409C0019782046FFF7A8FD02E02946FFF7F1FE4C
:1040AC0038BD81B14160032380F89C32FFF790FD4D
:1040BC00022803D0204600F0F1F9F1E7294620460A
:1040CC00FFF7DFFEECE700F0E9F9E9E789B14368B7
:1040DC0099421DD0D9B2FFF787FD0F4B197861605B
:1040EC002046FFF775FD02280DD0204600F0D6F9CA
:1040FC00D6E7022380F89C324160FFF775FD20461D
:10410C0000F0CCF9CCE729462046FFF7BAFEC7E70A
:10411C0000F0C4F9C4E700BF3004002008B5CB8818
:10412C00012B0AD190F89C32022B09D9032B11D107
:10413C000122011D00F095F901E0FFF7A2FE08BD78
:10414C005BB23BB10146002341F8083F012200F06D
:10415C0088F9F4E7FFF795FEF1E708B590F89C3283
:10416C00013B022B12D8CB88022B0CD10123C3604C
:10417C00D0F8A4320BB10323C360022200F10C016E
:10418C0000F06FF908BDFFF77CFEFBE7FFF779FE47
:10419C00F8E708B590F89C32013B022B09D84B8804
:1041AC00012B00D008BD0023C0F8A43200F076F932
:1041BC00F8E7FFF766FEF5E708B50B7803F0600348
:1041CC00202B05D0402B03D043B1FFF75AFE03E060
:1041DC00D0F8B4329B689847002008BD4B78092B67
:1041EC001BD8DFE803F011171A141A08051A0E0B66
:1041FC00FFF751FEF0E7FFF711FFEDE7FFF736FF92
:10420C00EAE7FFF78BFFE7E7FFF7A7FFE4E7FFF726
:10421C001AFEE1E7FFF7BDFFDEE7FFF732FEDBE753
:10422C0038B505460C460B7803F06003202B06D0FE
:10423C00402B04D01BB1FFF724FE002038BD95F8AD
:10424C009C32013B022B16D82379012B0ED8D5F8C2
:10425C00B4329B68214628469847E388002BECD162
:10426C000028EAD1284600F019F9E6E7214628464D
:10427C00FFF707FEE1E721462846FFF702FEDCE7E1
:10428C0070B505468B880C7804F06004202C07D0A0
:10429C00DAB2402C04D05CB1FFF7F3FD002405E04A
:1042AC00D5F8B4329B68284698470024204670BD48
:1042BC00202C09D04E78012E33D0032E0AD0002E9C
:1042CC0055D0FFF7DEFDF1E7D0F8B4329B68984784
:1042DC000446EBE790F89C32022B04D0032B11D050
:1042EC00FFF7CFFDE2E70AB1802A03D12846FFF79A
:1042FC00C8FDDBE71146FFF7E8F880212846FFF7F9
:10430C00E4F8D3E74B8823B91AB1802A01D0CB88C3
:10431C001BB1284600F0C2F8C8E71146FFF7D5F8E4
:10432C00F7E790F89C32022B04D0032B11D0FFF747
:10433C00A8FDBBE70AB1802A03D12846FFF7A1FDEF
:10434C00B4E71146FFF7C1F880212846FFF7BDF806
:10435C00ACE74B88002BA9D112F07F0F03D1284674
:10436C0000F09CF8A2E71146FFF7B7F8F7E790F8D2
:10437C009C02022806D0032829D02846FFF781FD8D
:10438C00344693E70AB1802A13D113F0800F15D16C
:10439C0002F07F0202EB8202910001F5A871294420
:1043AC00043100230B600222284600F05AF83446F0
:1043BC007CE72846FFF765FD344677E702F07F027D
:1043CC0002EB82029100103129440431E9E75BB21F
:1043DC00002B1FDB02F00F0000EB800005EB8000D0
:1043EC00D0F8580120B3002B27DB02F07F0303EB3E
:1043FC0083039C0004F5A8742C4404340AB1802A6D
:10440C0024D10023236002222146284600F029F8FB
:10441C0034464BE702F00F0000EB800005EB800008
:10442C0080690028DFD12846FFF72BFD34463DE795
:10443C002846FFF726FD344638E702F07F0303EBEE
:10444C0083039C0010342C440434D7E711462846CF
:10445C00FFF74BF810B101232360D4E7002323604E
:10446C00D1E708B513460222C0F89422C361036257
:10447C000A460021FFF758F8002008BD08B513467E
:10448C000A460021FFF750F8002008BD08B5134676
:10449C000A460021FFF750F8002008BD08B5042398
:1044AC00C0F8943200231A461946FFF73DF8002055
:1044BC0008BD08B50523C0F8943200231A461946E6
:1044CC00FFF73AF8002008BD38B510B305468188CF
:1044DC000068FEF7A5FE0446FEF7CEF9AB79012B7A
:1044EC0007D0022B11D0BBB9C4B90123AB71A860A2
:1044FC0010E014B10024AC710CE0AA68801A1328E7
:10450C0008D90222AA711C4604E01CB10024AC712B
:10451C0000E00024204638BD0024FBE71C46F9E7E8
:10452C00002308E003EB43029100044A0A440021F3
:10453C00917191600133032BF4DD70470C00002066
:10454C0008B50248FFF7C0FF08BD00BF0C000020F3
:10455C0008B50248FFF7B8FF08BD00BF18000020DF
:10456C0008B50248FFF7B0FF08BD00BF24000020CB
:10457C0008B50248FFF7A8FF08BD00BF30000020B7
:10458C00002800F0CC8070B5044690F83D30002B2C
:10459C0077D0242384F83D302268136823F001037C
:1045AC0013602268136843F4004313602268136895
:1045BC0023F400431360FEF77DFC62685A4B9A4269
:1045CC0064D85A4B98428CBF00230123002B40F037
:1045DC00A8805749A1FB00318B0C25686A6822F032
:1045EC003F0242EA91426A6021680A6A22F03F0265
:1045FC0066684D4DAE424FD8013313430B622168B0
:10460C00CA6922F44F4222F0FF026568464B9D4274
:10461C004CD8431E6D00B3FBF5F3013340F6FC7030
:10462C00034278D0C3F30B031A43CA6121680B68A9
:10463C0023F0C003E269206A024313430B60216834
:10464C008B6823F4034323F0FF032269E0680243E1
:10465C0013438B602168CB6823F0FF036269A06968
:10466C0002431343CB602268136843F001031360C9
:10467C0000202064202384F83D30206384F83E0021
:10468C0070BD80F83C30FBF741FF82E7294B984224
:10469C008CBF0023012399E74FF4967505FB03F3B8
:1046AC00254DA5FB03539B090133A6E7A668BEB9AC
:1046BC00431E05EB450CB3FBFCF30133C3F30B03B7
:1046CC00B3FA83F35B0943BBC6B9431E05EB45053F
:1046DC00B3FBF5F30133C3F30B0343F40043A3E73C
:1046EC00431E05EB850C0CEB8C0CB3FBFCF301337C
:1046FC00C3F30B03B3FA83F35B09E4E7431E05EB47
:10470C00850505EB8505B3FBF5F30133C3F30B030B
:10471C0043F4404388E7042386E7012384E7012020
:10472C0070470120ACE700BFA08601007F841E000B
:10473C0083DE1B43FF083D00D34D6210FEF762FE83
:10474C000B480C490C4A002302E0D458C4500433E3
:10475C00C4188C42F9D3094A094C002301E01360B8
:10476C000432A242FBD300F017F8FBF735FE70477A
:10477C00000000203C000020844800083C00002081
:10478C0034040020FEE703460244934200D17047F4
:10479C0003F8011BF9E7000070B500260C4D0D4B1A
:1047AC005B1B9C10A64209D1002600F019F80A4D9B
:1047BC000A4B5B1B9C10A64205D170BD55F8043BFF
:1047CC0098470136EEE755F8043B98470136F2E777
:1047DC007C4800087C4800087C4800088048000899
:1047EC00F8B500BFF8BC08BC9E467047F8B500BFD2
:0847FC00F8BC08BC9E467047A2
:10480400310D0A00300D0A00436F6E74726F6C6CC8
:104814006572207265616479210D0A004C45465425
:104824000D0A00000000000052494748540D0A00D8
:10483400524F544154450D0A0000000044524F5059
:104844000D0A00000102000002030405060708091E
:104854000A0B0C0D0E0F10100000000001020304DF
:10486400000000000000000001020304060708091C
:08487400D8B8FF7F010000002D
:04487C0031010008FE
:044880000D0100081E
:1048840001000000100000000024F40000080140B2
:1048940002000000000000000008014004000000C5
:1048A40000000000000801400800000000000000B3
:0C48B4000008014010000000000000009F
:04000005080047495F
:00000001FF
